:060000000A128A11222CF5
:100844003F30FD01CB01CC01CD01CE01CF01D00160
:10085400C1000630C2005B30C3004F30C4006630B4
:10086400C5006D30C6007D30C7000730C8007F303A
:10087400C9006F30CA0083010A128A118B2EF21F3D
:10088400502C7008003CF0007108031C710F003CF0
:10089400F1007208031C720F803CF200F51F5F2CFC
:1008A4007308003CF3007408031C740F003CF4004C
:1008B4007508031C750F803CF5008030F206F506C0
:1008C40075087202031D080074087102031D0800F4
:1008D400730870020800A501A31F772CA209A309BD
:1008E400A20A0319A30AA501A50AA11F7E2CA00927
:1008F400A109A00A0319A10A2108200403199D2CA7
:10090400A401A40AA11B8A2C0310A00DA10D832C01
:1009140021082302031D902C20082202031C992C79
:100924002008A2022108031CA303A3020310A10CA4
:10093400A00CA40B8A2C25080319A52CA209A30931
:10094400A20A0319A30A2308A1002208A000080090
:10095400A501A11FB42CA009A109A00A0319A10A89
:10096400A501A50AA31FBD2CA209A309A20A031964
:10097400A30A0130A506A601A70121082004031932
:10098400E22CA401A40AA11BCB2C0310A00DA10DE1
:10099400C42C0310A60DA70D21082302031DD42C7B
:1009A40020082202031CDE2C2008A2022108031CBA
:1009B400A303A30226140310A10CA00CA40BCB2C9C
:1009C40025080319EA2CA609A709A60A0319A70AE8
:1009D4002708A1002608A00008004A250A128A1147
:1009E4000310750D760DFC00FC08031DFE2CF001B0
:1009F400F101F201F30108004A250A128A111730A5
:100A04000310F60CF50CF40CFF3E031D022D7408C4
:100A1400F700F117F2017008F8007108F900720884
:100A2400FA008E30FB01FC02FC1F252D7C08803A65
:100A34008F3E031CF92C0310FB0CFA0CF90CF80C78
:100A4400FC0F1D2D332D18307C020318F92CFC08E3
:100A54000319332D0310F80DF90DFA0DFB0DFC03EA
:100A6400292D77080319412DF809F909FA09FB0919
:100A7400F80A0319F90A0319FA0A0319FB0A7B088D
:100A8400F3007A08F2007908F1007808F000080011
:100A94007008F4007108F5007208F6000800FB0104
:100AA400F91F5B2DF809F909F80A0319F90AFB0182
:100AB400FB0A7808F0007908F1008E30F201F300A7
:100AC4007B08F40043267008F8007108F9007208E6
:100AD400FA0008002308A6002408A7002508A80097
:100AE4000310270D280DAD00AD08031D7D2DA001B9
:100AF400A101A20108002008A6002108A7002208DD
:100B0400A8000310270D280DAE00AE08031D8E2D7E
:100B1400A001A101A20108008930AA01AB01AC0126
:100B24002E07A600AD022508AE002208AE068030CE
:100B3400AE051830A417A501A117A201A90003103E
:100B4400AA0DAB0DAC0D22082502031DAF2D210803
:100B54002402031DAF2D20082302031CBD2D2008F1
:100B6400A3022108031C210FA4022208031C220A49
:100B7400A5022A140310A30DA40DA50DA90BA12DE4
:100B84002A08F0002B08F1002C08F2002D08F300CD
:100B94002E08F40043267008A0007108A100720812
:100BA400A20008002F08B5003008B6003108B700CD
:100BB4000310360D370DB800B808031DE52DAF013D
:100BC400B001B10108003208B5003308B60034089A
:100BD400B7000310360D370DBD00BD08031DF62DFB
:100BE400AF01B001B10108003D087B3EB8073108F0
:100BF400BD003408BD068030BD050730B017B317FB
:100C0400B401B901BA01BB01BC002F1C112E32087A
:100C140081260A128A110318340A031DBB07031024
:100C2400B10CB00CAF0C0310B20DB30DB40DBC0B72
:100C3400072E0930BC002F1C272E320881260A12E9
:100C44008A110318340A031DBB070310B10CB00C3E
:100C5400AF0C0310BB0CBA0CB90CBC0B1D2E39081D
:100C6400F0003A08F1003B08F2003808F3003D08B0
:100C7400F40043267008AF007108B0007208B10098
:100C84000800730803194B2E720871047004031DC5
:100C9400542EF001F101F2010800F30A0310F20CE2
:100CA400F10CF00CFE3072050319632E4F2EF30A7B
:100CB400F00A0319F10A0319F20A0310F20CF10CF9
:100CC400F00CFF30720503196D2E592EF303031037
:100CD400F00DF10DF20DF11F682E731CF1130310CA
:100CE400F30C7308F700F601F5017508F0047608B3
:100CF400F1047708F2047408031DF2170800B90719
:100D0400330803110318330A031DBA073408031107
:100D14000800831606118610870188018312870153
:100D24008316051403170814831203139F171F1344
:100D340083169F121F1283121F119F111F129F12DD
:100D440083169F1783121F148312031341309F14B9
:100D5400BF00EE30BE00BE0BAD2EBF0BAD2E640047
:100D6400831203139F18B22E1E08CF00CE018316E0
:100D74001E088312CE070318CF0AC830AF01B00093
:100D84004230B100C030A0007F30A1004430A20046
:100D94004F08F9004E08F8000A128A1151250A1268
:100DA4008A117808A3007908A4007A08A5000A1219
:100DB4008A116C250A128A112008B2002108B30096
:100DC4002208B4000A128A11D4250A128A112F08A3
:100DD400CB003008CC003108CD004B08F0004C08A3
:100DE400F1004D08F200C830F301F4004230F50080
:100DF4000A128A1141240A128A1103187E2F0A301A
:100E0400A000A1014B08F0004C08F1004D08F200CD
:100E14000A128A11EF240A128A117108A3007008B9
:100E2400A2000A128A11AA240A128A112008FD00BB
:100E34000A30A000A1014B08F0004C08F1004D0855
:100E4400F2000A128A11EF240A128A117108A3000F
:100E54007008A2000A128A116D240A128A1120084D
:100E6400D0007D08413E84008313000887000630CB
:100E74008614C0001330BF00B130BE00BE0B402F3B
:100E8400BF0B402FC00B402F472F83120313063094
:100E94008610C0001330BF00B130BE00BE0B502F0F
:100EA400BF0B502FC00B502F572F83120313500822
:100EB400413E840083130008870006300615C000F5
:100EC4001330BF00B130BE00BE0B662FBF0B662FC0
:100ED400C00B662F6D2F8312031306300611C0005A
:100EE4001330BF00B130BE00BE0B762FBF0B762F80
:100EF400C00B762F7D2FA62EC630CB01CC004230FE
:100F0400CD000A30A000A1014B08F0004C08F1000C
:100F14004D08F2000A128A11EF240A128A1171088C
:100F2400A3007008A2000A128A11AA240A128A11C4
:100F34002008FD000A30A000A1014B08F0004C0875
:100F4400F1004D08F2000A128A11EF240A128A11E4
:100F54007108A3007008A2000A128A116D240A12F3
:100F64008A112008D0007D08413E840083130008C4
:100F7400870006308614C0001330BF00B130BE00B5
:100F8400BE0BC22FBF0BC22FC00BC22FC92F83129F
:100F9400031306308610C0001330BF00B130BE000A
:100FA400BE0BD22FBF0BD22FC00BD22FD92F83123F
:100FB40003135008413E8400831300088700063061
:100FC4000615C0001330BF00B130BE00BE0BE82FC1
:100FD400BF0BE82FC00BE82FEF2F8312031306304B
:100FE4000611C0001330BF00B130BE00BE0BF82F95
:0C0FF400BF0BF82FC00BF82FFF2FA62E0C
:02400E00E2E3EB
:00000001FF
