:060000000A128A110C280F
:10000800FE00030EF0000A08F1000A128A118F2F71
:100018000A128A11A62F8316AA005730A4008C272B
:100028002A08AA0A84000A168A1100200A128A11CC
:10003800B800B80803190800253A03192828380811
:1000480009250A128A111328AF01B001A801A901D4
:100058002A0884000A168A1100200A128A117725B4
:100068000A128A11031C5C28AF01B0013008F300A2
:100078002F08F2000A30F400F50185252A088400CB
:100088000A168A1100200A128A113B270A128A11BD
:10009800AF007E27B000AA0A2A0884000A168A112F
:1000A80000200A128A1177250A128A1103183A28A1
:1000B8002A0884000A168A1100200A128A112E3A88
:1000C800031D8F282917AA0AB601B7012A08840038
:1000D8000A168A1100200A128A1177250A128A1133
:1000E800031C98283708F3003608F2000A30F40099
:1000F800F50185252A0884000A168A1100200A12AB
:100108008A113B270A128A11B6007E270A128A1121
:10011800B700AA0A6A28B601B7012916982829152E
:10012800AB28C030A804AB282A08AA0A84000A16FB
:100138008A1100200A128A11B800003A0319082D02
:10014800663A03199328133A03199528132883123A
:100158000730DA01831629058312DB005A040319D4
:10016800E42B8316291EBB280630B600B7012408E5
:10017800840083130008B300840A0008B400840ACA
:100188000008B5000330A4073308F2003408F30070
:100198003508F400F501F601F7014B250A128A111A
:1001A8000318E7283308F2003408F3003508F40090
:1001B800BA260A128A117208B3007308B4007408C8
:1001C800B5000330A804B101B20135083404330482
:1001D80003197E29B330840077270A128A11840A0A
:1001E8000008DC00840A0008DD000F300310DD0C75
:1001F800DC0CDB0CDA0CFF3E031DFA285B088316C7
:10020800B20083125A088316B1008230B201B107D6
:10021800031CB203FF30B107031CB2030330F20022
:10022800F3013208F5003108F40085257308B2009F
:100238007208B1000A30F800F9013208FB003108F1
:10024800FA000A128A1569260A128A117908831691
:10025800B2007808B100B21F3529FF30B107031C7E
:10026800B2033103FF3A0A128A15D7240A128A11F7
:1002780025270A128A115227831625088312B500EA
:10028800831626088312B600831627088312B70040
:100298000A128A15EC260A128A1132088316A5005A
:1002A800831233088316A600831234088316A70026
:1002B80070270A128A118030F501F6003F30F700E6
:1002C8004B250A128A1103186E29FF30B107031C47
:1002D800B2037E2970270A128A112030F501F60030
:1002E8004130F7004B250A128A11031C7E29B10AF6
:1002F8000319B20A3708803AFF0080307F02031DD5
:1003080087290D3036020318B2298C2736080A12BD
:100318008A153C210A128A114D08C1004E08C200F4
:100328004F08C300831633088312C40083163408A9
:100338008312C500831635088312C6000A168A116F
:100348003E270A128A1141088316B3008312420815
:100358008316B400831243088316B5008C2732082D
:10036800803AFF0080307F02031DBC290A30310229
:100378000318DD298C2735083404330403191E2A91
:10038800330847270A128A119E250A128A1127085C
:10039800260425042404031D1E2A83163208803AE5
:1003A800FF0080307F02031DDB2902303102031C6D
:1003B8001E2A8C2770270A128A117030F50089309E
:1003C800F6004030F7004B250A128A110318EE296F
:1003D800F730EF29F830B107031CB20331080A12CD
:1003E8008A15D7240A128A1125270A128A11F200BF
:1003F8003408F3003508F4002508F5002608F6004F
:100408002708F70042260A128A1175088316A300E6
:100418007408A2007308A1007208A0002308AE00A7
:100428002208AD002108AC002008AB00B301B401DC
:10043800B5015F2A8C27330847270A128A119E259F
:100448000A128A1117270A128A118316AB002E087E
:100458008312A30083162D088312A20083162C088A
:100468008312A10083162B088312A000C2260A1249
:100478008A112008CD002108CE002208CF0083165B
:1004880033088312D000831634088312D1008316F0
:1004980035088312D200E2260A128A114D08831603
:1004A800B30083124E088316B40083124F088316D4
:1004B800B500B101B201B801B80AFA260A168A11C4
:1004C80000200A128A11DB000A168A1100200A127B
:1004D8008A11DC000A168A1100200A128A11DD002E
:1004E8000A168A1100200A128A11DE0083162E02CB
:1004F800031D8E2A83125D0883162D02031D8E2A82
:1005080083125C0883162C02031D8E2A83125B0853
:1005180083162B02031C952AB80A38080A3A031DC9
:10052800612A360838078312DA0083163708031859
:10053800370AB81BFF3E8312DB008316310883128B
:100548005A07DC00831632080318320A83125B0745
:10055800DD005C088316AF0283125D088316031C56
:10056800B003B002370836040319BE2AFF30AF07BC
:10057800031CB00328080339031DD12A3008803A28
:10058800FF0080307F02031DCB2A01302F02031C9D
:10059800D72A203009250A128A11FF308C27AF0785
:1005A800031CB003C22A8C272808033903190A2B15
:1005B8002D30072B04270A128A11FA260A168A11E7
:1005C80000200A128A11F2000A168A1100200A1263
:1005D8008A11F3000A168A1100200A128A11F400FF
:1005E8000A168A1100200A128A110C270A128A1187
:1005F800F9250A128A1132270A128A110D250A12C0
:100608008A112508303E09250A128A118C27B80359
:10061800380FDE2A3208803AFF0080307F02031D3F
:10062800172B01303102031C232B303009250A1205
:100638008A11FF308C27B107031CB2030E2B8C27BD
:100648003708803AFF0080307F02031D2D2B0930C8
:100658003602031C322B08308C27342B8C273608A3
:10066800B8008312DA00DB01DA1BDB038316B6025B
:1006780083125B088316031CB703B70238080319F3
:10068800492B2E3009250A128A118C2738080A129C
:100698008A15D7240A128A114108B5004208B60003
:1006A8004308B7008316330852270A128A15EC2626
:1006B8000A128A113208A4003308A5003408A600DB
:1006C8009E250A128A1117270A128A11D12B04278C
:1006D8000A128A11FA260A168A1100200A128A11A9
:1006E800F2000A168A1100200A128A11F3000A166B
:1006F8008A1100200A128A11F4000A168A110020B1
:100708000A128A110C270A128A11F9250A128A116B
:1007180032270A128A110D250A128A112508303E3D
:1007280009250A128A118C27FA260A168A1100202E
:100738000A128A11A5000A168A1100200A128A11C3
:10074800A6000A168A1100200A128A11A7000A16A2
:100758008A1100200A128A11A80083162E08831213
:10076800AC0083162D088312AB0083162C08831265
:10077800AA0083162B088312A9000D250A128A11D4
:1007880028088316AE00831227088316AD0083124B
:1007980026088316AC00831225088316AB00B8031D
:1007A800380F6B2B37083604031913283030092506
:1007B8000A128A11FF308C27B607031CB703D62B01
:1007C800831624088400831377270A128A115A088B
:1007D8008316AB0083125B088316AC00AD01AE0133
:1007E800A40AA40A37083604031D022C2E082D0477
:1007F8002C042B040319B60A0319B70AB801B80A5E
:10080800FA260A168A1100200A128A11DB000A1633
:100818008A1100200A128A11DC000A168A110020A7
:100828000A128A11DD000A168A1100200A128A119A
:10083800DE0083162E02031D312C83125D088316F9
:100848002D02031D312C83125C0883162C02031D14
:10085800312C83125B0883162B02031C382CB80A30
:1008680038080A3A031D042C38085D270A128A1131
:100878003708803A83125C02031D462C831636081B
:1008880083125A0203184C2C8C273608B800642CA3
:10089800831667270A128A113708803A8312DC0008
:1008A8005B08803A5C02031D5C2C5A0883163602EA
:1008B8000318642C8C273808B600B701B61BB70399
:1008C8008C2730082F040319712C280803390319C1
:1008D800712CFF30AF07031CB003291F8E2C37087B
:1008E800803A8312DA0083163008803A83125A025B
:1008F800031D812C83162F08360203188B2C8C2796
:100908003608AF023708031CB003B0028E2C8C27C0
:10091800AF01B00138085D270A128A113008803A01
:1009280083125C02031D9C2C83162F0883125A0223
:100938000318AA2C831667270A128A11AF0283129A
:100948005B088316031CB003B002AD2C8C27AF01E3
:10095800B00130082F040319BE2C203009250A12D3
:100968008A11FF308C27AF07031CB00330082F040F
:10097800031DB12C280803390319C62C2D3009256D
:100988000A128A11FF308C27B607031CB703360AF0
:100998000319370A031913280A308312A500A60180
:1009A800A701A801831636088312DA000310DA0DAE
:1009B80003105A0D4F3E84000A168A1100200A12AD
:1009C8008A11F2000A168A1100200A128A11F3000D
:1009D8000A168A1100200A128A11F4000A168A11CE
:1009E80000200A128A110C270A128A11F9250A1204
:1009F8008A1132270A128A110D250A128A1125082E
:100A0800303E8316B800C32C0800FB000A128A1572
:100A1800A62A28082704260425040319422DFA01CA
:100A2800FA0AA81B1D2D0310A50DA60DA70DA80DCC
:100A3800142D28082C02031D2B2D27082B02031D1B
:100A48002B2D26082A02031D2B2D25082902031CFD
:100A58003C2D2508A9022608031C260FAA022708F0
:100A6800031C270FAB022808031C280FAC02031035
:100A7800A80CA70CA60CA50CFA0B1D2D2C08A80079
:100A88002B08A7002A08A6002908A5000800F41FBB
:100A98005A2D7208003CF2007308031C730F003CC7
:100AA800F3007408031C740F803CF400F71F692DD1
:100AB8007508003CF5007608031C760F003CF6002C
:100AC8007708031C770F803CF7008030F406F706A0
:100AD80077087402031D080076087302031D0800D6
:100AE800750872020800F3003A30F2017302031825
:100AF800832D30307302031C832DF201F20A720C2D
:100B08000800F601F701721C8F2D7408F607031808
:100B1800F70A7508F7070310F40DF50D0310F30C29
:100B2800F20C73087204031D872D7708F30076080A
:100B3800F200080085270A128A110310290D2A0DD0
:100B4800B000B008031DAD2DA401A501A601A701A1
:100B5800080085270A128A1117300310AA0CA90C5D
:100B6800A80CFF3E031DB12D2808AB00A517A60150
:100B78002408AC002508AD002608AE008E30AF0171
:100B8800B002B01FD42D3008803A8F3E031CA82D28
:100B98000310AF0CAE0CAD0CAC0CB00FCC2DE22D8D
:100BA800183030020318A82DB0080319E22D0310DD
:100BB800AC0DAD0DAE0DAF0DB003D82D2B0803193C
:100BC800F02DAC09AD09AE09AF09AC0A0319AD0A9D
:100BD8000319AE0A0319AF0A2F08A7002E08A600AA
:100BE8002D08A5002C08A40008008312A001A1016B
:100BF800A201A30175087404730472040319392E41
:100C0800A401A40AF51B0E2E0310F20DF30DF40D2A
:100C1800F50D052E0310A00DA10DA20DA30D75084D
:100C28007902031D212E74087802031D212E7308F2
:100C38007702031D212E72087602031C332E7208D8
:100C4800F6027308031C730FF7027408031C740F71
:100C5800F8027508031C750FF90220140310F50C2F
:100C6800F40CF30CF20CA40B0E2E2308F50022084A
:100C7800F4002108F3002008F20008007208F800C8
:100C88007308F9007408FA000310790D7A0D8312BD
:100C9800A500A508031D552EF201F301F401F50185
:100CA80008007508F8007608F9007708FA000310BC
:100CB800790D7A0DA400A4080319502E7F30F3177C
:100CC800F401F617F701A001A101A201A301A502F1
:100CD80098302407F800A5021830A4000310A00DCE
:100CE800A10DA20DA30D77087402031D812E7608AD
:100CF8007302031D812E75087202031C8F2E75085E
:100D0800F2027608031C760FF3027708031C770AB1
:100D1800F40220140310F20DF30DF40DA40B722E3F
:100D2800A51FA32E2508803A973E031C502E0310BA
:100D3800A30CA20CA10CA00CA50F9B2EB12E183051
:100D480025020318502EA5080319B12E0310A00D73
:100D5800A10DA20DA30DA503A72E2308F5002208B7
:100D6800F4002108F3002008F20008007408730456
:100D78007204031908008030F40608008E30FA0067
:100D8800FF3023050319CF2E0310A30CA20CA10CCE
:100D9800A00CFA0AC42E2008F2002108F300220849
:100DA800F4007A08F500F6010A128A156927720814
:100DB800A0007308A1007408A20008008030CF06C4
:100DC8005008C1005108C2005208C3004D08C400B1
:100DD8004E08C5004F08C6000A168A113E2741086A
:100DE800CD004208CE004308CF000800380883121F
:100DF800DA000310DA0D03105A0D4F3E8400080084
:100E08000A308312A500A601A701A80183160800CD
:100E1800F50083162E08F9002D08F8002C08F700B5
:100E28002B08F600080027088316AE008312260850
:100E38008316AD00831225088316AC00831224089C
:100E4800080041088316A500831242088316A600ED
:100E5800831243088316A700330808007508AC00FE
:100E68007408AB007308AA007208A900080072078A
:100E78008312DA000030031801307307DB005A08C8
:100E8800D03E831608008312A40083163408831208
:100E9800A500831635088312A60008008312B20045
:100EA800831634088312B300831635088312B400FE
:100EB80008008312DA00DB01DA1BDB035B08803AE7
:100EC800DC0083160800031338088312DA00DB01FC
:100ED800DA1BDB03831608002508F2002608F30056
:100EE8002708F400080000088312DA00840A0008C2
:100EF800DB00080083125B080318013EFF3E8316DF
:100F080008002408A8002508A9002608AA00080047
:100F1800831603130800831203130C1D982F0C115A
:100F28001608E8001508E7000D1C9F2F0D101C0877
:100F3800EA001B08E90071088A00700E8300FE0EA3
:100F48007E0E0900E401E501E601E701E801E90197
:0E0F5800EA01EB01EC0183010A168A11872ED3
:1010E20072308400000883120313A000840A0008EF
:1010F200A100840A0008A200840A0008A3000310C9
:10110200220D230DAD00AD08031D8C28F201F30161
:10111200F401F501080075302F210A128A15031017
:10112200220D230DAC00AC0803198728723084000D
:101132008030840A840A80047230840A8400753004
:10114200840A840A840A800184008030840A840A22
:1011520080047530840A84007F30840A840A840AF9
:101162008001A801A901AA01AB01AD02A0302C07A0
:10117200A000AD022030AC0075300310A80DA90DFF
:10118200AA0DAB0D2F210A128A15723084000008B5
:10119200A400840A0008A500840A0008A600840AA4
:1011A2000008A70023082702031DE12822082602BF
:1011B200031DE12821082502031DE128200824023D
:1011C200031CFD2875302F210A128A157230840003
:1011D20020088002840A2108031C210F8002840A4D
:1011E2002208031C220F8002840A2308031C230AFC
:1011F2008002033084022814723084000310800DB0
:10120200840A800D840A800D840A800DAC0BBD28EF
:10121200AD1F18292D08803A9F3E031C8728031012
:10122200AB0CAA0CA90CA80CAD0F10292629203052
:101232002D0203188728AD08031926290310A80DCB
:10124200A90DAA0DAB0DAD031C292B08F5002A0828
:10125200F4002908F3002808F200080084000008BE
:10126200A000840A0008A100840A0008A200840ADF
:101272000008A30008008312D6006E305602031C39
:10128200C7290330FB000A30F7006430F200560829
:101292005C220A128A1541220A128A155B270A1257
:1012A2008A151C3E84000A168A1100200A128A1529
:1012B200B2000A168A1100200A128A15B3000A1611
:1012C2008A1100200A128A15B4000330FB00643030
:1012D200F700560841220A128A155B270A128A155C
:1012E200373E84000A168A1100200A128A15B500B8
:1012F2000A168A1100200A128A15B6000A168A11E5
:1013020000200A128A15B7000A128A15EC260A1260
:101312008A1587220A128A150330FB000A30F2006E
:1013220056085C220A128A155B270A128A15013EA8
:1013320084000A168A1100200A128A15B2000A16BF
:101342008A1100200A128A15B3000A168A11002097
:101352000A128A157F220A128A15EC260A128A15A7
:101362003208D0003308D1003408D2003F30B20135
:10137200B301B4005008B5005108B6005208B700D6
:101382000A128A15EC260A128A15782A0B3056029E
:10139200031C1B2A0330FB000A30F20056085C22B1
:1013A2000A128A155B270A128A15013E84000A1660
:1013B2008A1100200A128A15B2000A168A11002028
:1013C2000A128A15B3000A168A1100200A128A1517
:1013D200B4000330FB000A30F700560841220A121B
:1013E2008A155B270A128A151C3E84000A168A1186
:1013F20000200A128A15B5000A168A1100200A1264
:101402008A15B6000A168A1100200A128A15B70038
:101412000A128A15EC260A128A1587220A128A15DE
:101422003F30B201B3017F220A128A15EC260A125A
:101432008A15782A3F30B201B301B4000330FB00B1
:1014420056080A128A155B270A128A15013E840081
:101452000A168A1100200A128A15B5000A168A1184
:1014620000200A128A15B6000A168A1100200A12F2
:101472008A15B7000A128A15EC260A128A15782AEA
:10148200F800FA01770803195A2AF901F90AF71B39
:101492004D2A0310F70D472A0310FA0D7708780238
:1014A200031C572A7708F8027A140310F70CF90B79
:1014B2004D2A7A080800F4000830F500F601740895
:1014C200F30007300310F30CFF3E0310031D642AE0
:1014D200760D7304F6000310F40D72087602031CF5
:1014E200742A7208F602F50B602A760808003208A0
:1014F200CD003308CE003408CF000800B4005308F2
:10150200B5005408B6005508B70008003208D300E9
:101512003308D4003408D5000800F800770803190E
:10152200952A4030F900962AF9017808F9077908D6
:101532008038F200003090230A128A1520240A1201
:101542008A150038031908009F2AFA00CC2A0030B5
:10155200F201F20A90230A128A1520240A128A152D
:10156200003803190800AE2A0030F701F70A8E2A64
:101572007A0847240A128A15031C08007A08F20026
:10158200013090230A128A1520240A128A15003883
:1015920003190800C52A7A080A3A0319B52A063A35
:1015A2000319A82AB92A080083168811881008117D
:1015B20008128812081388138312033088118810C6
:1015C2000811F9008A30F8005630F700F70BE72AC5
:1015D200F80BE72AF90BE72AEE2A3030F200003046
:1015E20090230A128A150230F9004530F800A9301A
:1015F200F700F70BFA2AF80BFA2AF90BFA2A012B51
:101602003030F200003090230A128A150230F900BD
:101612004530F800A930F700F70B0D2BF80B0D2B16
:10162200F90B0D2B142B3230F200003090230A12EA
:101632008A150330F9008A30F8005630F700F70BAC
:10164200202BF80B202BF90B202B272B0330F90032
:101652008A30F8005630F700F70B2D2BF80B2D2BA4
:10166200F90B2D2B342B0330F9008A30F800563059
:10167200F700F70B3A2BF80B3A2BF90B3A2B412BCD
:1016820020240A128A150038031D412B2830F2004B
:10169200003090230A128A1520240A128A15003873
:1016A200031D4D2B0830F200003090230A128A15D8
:1016B20020240A128A150038031D592B0C30F2001F
:1016C200003090230A128A1520240A128A15003843
:1016D200031D652B0030F201F20A90230A128A15CB
:1016E20020240A128A150038031D712B0430F200DF
:1016F200003090230A128A1520240A128A15003813
:10170200031D7D2B0030F201F20A90230A128A1582
:1017120020240A128A15003803190800892BF500C3
:101722008316031308128812081388138312881071
:101732007508031D88142130F300F30B9E2B5C24E3
:1017420021300811F300F30BA42B5C2488117208DA
:10175200F600760E0139F300730C031CB32B5C24E4
:101762000816B52B5C240812760EF300730C0139AF
:10177200F400740C031CC02B5C248816C22B5C245E
:101782008812760E55240A128A15031CCB2B5C2470
:101792000817CD2B5C240813760D760D0139F30062
:1017A200730C031CD72B5C248817D92B5C24881359
:1017B2002130F300F30BDB2B5C2421308815F3007E
:1017C200F30BE12B5C24881176080139F300730CCA
:1017D200031CEE2B5C240816F02B5C240812760CFA
:1017E2000139F300730C031CF92B5C248816FB2BC4
:1017F2005C248812760CF300730C0139F400740C2B
:10180200031C062C5C240817082C5C240813760C95
:1018120055240A128A15031C112C5C248817132CD8
:101822005C2488132130F300F30B152C5C24213047
:101832008815F300F30B1B2C5C2488110800831617
:101842000313081688160817881783122130081503
:101852008810F200F20B2B2C5C2421308815F20048
:10186200F20B312C00305C24881B0130F300213054
:101872008811F200F20B3B2C5C2421308815F20017
:10188200F20B412C5C24881173080800F3007F30AE
:10189200F20173020318532C20307302031C532CE1
:1018A200F201F20A720C0800F300F30C730C013916
:1018B200F400740C08008312031308002008F200DD
:1018C2002108F3008E30F401F500F6016927720851
:1018D200A0007308A1007408A20008002608A9004D
:1018E2002708AA002808AB0003102A0D2B0DB00010
:1018F200B008031D802CA301A401A5010800230840
:10190200A9002408AA002508AB0003102A0D2B0DFC
:10191200B100B108031D912CA301A401A501080087
:101922008930AD01AE01AF013107A900B00228082C
:10193200B1002508B1068030B1051830A717A801FB
:10194200A417A501AC000310AD0DAE0DAF0D250817
:101952002802031DB22C24082702031DB22C2308DF
:101962002602031CC02C2308A6022408031C240FF1
:10197200A7022508031C250AA8022D140310A60D90
:10198200A70DA80DAC0BA42C2D08F2002E08F30015
:101992002F08F4003008F5003108F60069277208B4
:1019A200A3007308A4007408A50008008312CB00EA
:1019B200CB1FA32DCB09CB0A4B08803A123E031C46
:1019C200472D0A30CB270A128A15AF260A128A152A
:1019D2007308FB007208FA0069260A128A15F027BA
:1019E2001C3E84000A168A1100200A128A15B200CF
:1019F2000A168A1100200A128A15B3000A168A11E1
:101A020000200A128A15F8270A128A15FA1BFB030C
:101A120069260A128A15AF27373E84000A168A11F0
:101A220000200A128A15B5000A168A1100200A122D
:101A32008A15B6000A168A1100200A128A15B70002
:101A4200EC260A128A15B7270A128A15F41BF50327
:101A5200AF260A128A15A727013E84000A168A11A8
:101A620000200A128A15B2000A168A1100200A12F0
:101A72008A15B3000A168A1100200A128A15E02775
:101A82000A128A15EC260A128A15C42F4B08803ACC
:101A9200753E031C8C2D0A30F200F3014B08F40052
:101AA200F501F41BF503AF260A128A15A727013E9A
:101AB20084000A168A1100200A128A15B2000A1638
:101AC2008A1100200A128A15B3000A168A11002010
:101AD2000A128A15E8270A128A15FA1BFB036926DD
:101AE2000A128A15AF271C3E84000A168A110020AA
:101AF2000A128A15B5000A168A1100200A128A15DE
:101B0200B6000A168A1100200A128A15B700EC26BE
:101B12000A128A15C42F0330FB004B085B27013ED3
:101B220084000A168A1100200A128A15C1000A16B8
:101B32008A1100200A128A15C2000A168A11002090
:101B4200C30008004B08803A123E031C0D2E0A30D7
:101B5200CB270A128A15AF260A128A157308FB00D0
:101B62007208FA0069260A128A15F027433E840099
:101B72000A168A1100200A128A15B2000A168A1160
:101B820000200A128A15B3000A168A1100200A12CE
:101B92008A15F8270A128A15FA1BFB0369260A120C
:101BA2008A15AF275E3E84000A168A1100200A12A7
:101BB2008A15B5000A168A1100200A128A15B60083
:101BC2000A168A1100200A128A15B700EC260A1298
:101BD2008A15B7270A128A15F41BF503AF260A12D3
:101BE2008A15A727283E84000A168A1100200A12A5
:101BF2008A15B2000A168A1100200A128A15B30049
:101C02000A168A1100200A128A15E0270A128A157A
:101C1200EC260A128A15C42F4B08803A753E031C23
:101C2200522E0A30F200F3014B08F400F501F41BC6
:101C3200F503AF260A128A15A727283E84000A1642
:101C42008A1100200A128A15B2000A168A1100208F
:101C52000A128A15B3000A168A1100200A128A157E
:101C6200E8270A128A15FA1BFB0369260A128A154B
:101C7200AF27433E84000A168A1100200A128A15F1
:101C8200B5000A168A1100200A128A15B6000A1631
:101C92008A1100200A128A15B700EC260A128A1548
:101CA200C42F0330FB004B085B27283E84000A1632
:101CB2008A1100200A128A15C1000A168A11002010
:101CC2000A128A15C2000A168A110020C3000800EF
:101CD2008312A101F91F742EF809F909F80A0319F0
:101CE200F90AA101A10AFB1F7D2EFA09FB09FA0AD2
:101CF2000319FB0A0130A106A201A30179087804A5
:101D02000319A22EA001A00AF91B8B2E0310F80DB5
:101D1200F90D842E0310A20DA30D79087B02031D79
:101D2200942E78087A02031C9E2E7808FA0279080B
:101D3200031CFB03FB0222140310F90CF80CA00B8A
:101D42008B2E21080319AA2EA209A309A20A03199C
:101D5200A30A2308F9002208F8000800F701F51F7A
:101D6200B92EF409F509F40A0319F50AF701F70A7D
:101D7200F31FC02EF209F309F20A0319F30A7308DA
:101D820072040319DF2EF601F60AF31BCC2E0310A0
:101D9200F20DF30DC52E73087502031DD22E7208C3
:101DA2007402031CDB2E7208F4027308031CF50391
:101DB200F5020310F30CF20CF60BCC2E7708031984
:101DC200E72EF409F509F40A0319F50A7508F30078
:101DD2007408F20008003208B8003308B900340869
:101DE200BA000310390D3A0DBB00BB08031DFD2ECE
:101DF200B201B301B40108003508B8003608B900D1
:101E02003708BA000310390D3A0DC000C008031D8F
:101E12000E2FB201B301B401080040087B3EBB079C
:101E22003408C0003708C0068030C0050730B31739
:101E3200B617B701BC01BD01BE01BF00321C292F7C
:101E42003508D6270A128A150318370A031DBE075A
:101E52000310B40CB30CB20C0310B50DB60DB70DD4
:101E6200BF0B1F2F0930BF00321C3F2F3508D6276A
:101E72000A128A150318370A031DBE070310B40C91
:101E8200B30CB20C0310BE0CBD0CBC0CBF0B352F37
:101E92003C08F2003D08F3003E08F4003B08F50060
:101EA2004008F60069277208B2007308B30074088C
:101EB200B4000800A100A0017B082118A0070310AC
:101EC200FB0D0310A10CA108031D5D2F20080800C3
:101ED20075080319712F740873047204031D7A2F95
:101EE200F201F301F4010800F50A0310F40CF30CFB
:101EF200F20CFE3074050319892F752FF50AF20AC8
:101F02000319F30A0319F40A0310F40CF30CF20C8C
:101F1200FF3074050319932F7F2FF5030310F20D81
:101F2200F30DF40DF31F8E2F751CF3130310F50C34
:101F32007508F900F801F7017708F2047808F3044C
:101F42007908F4047608031DF41708007208C40027
:101F52007308C50044084407440708007808C6000F
:101F62007908C70046084607460708003208C80035
:101F72003308C9003408CA000A30F200F3014B08E2
:101F8200F400F50108003208C1003308C200340829
:101F9200C3000800F800F9014B08F400F501F41B36
:101FA200F5036430F200F3010800BC0736080311A0
:101FB2000318360A031DBD07370803110800B400D1
:101FC2004808B5004908B6004A08B7000800B4003E
:101FD2000A30F800F9014B08FA00FB010800780802
:101FE200C4007908C5004408440744070800B40047
:101FF2006430F800F9014B08FA00FB0108001030C8
:102002008A000408840A82070034003480343F3492
:10201200CD34CC343D34D73423343C34123483347D
:102022003A34B734D1343834C634273437343834B8
:1020320086343534C034D6343334CC342B34323451
:10204200703489343034E734DB342E34E5343C34B4
:102052001E344234A2340D34003480343F34003410
:10206200203441340034C834423400347A344434A5
:1020720040341C3446345034C3344734243474342A
:102082004934973418344B34BC34BE344C346B343A
:102092006E344E340334153450347934AD346034F4
:1020A200F3344934713401340034003400340A34D6
:1020B2000034003400346434003400340034E83432
:1020C2000334003400341034273400340034A03494
:1020D200863401340034403442340F3400348034C6
:1020E2009634983400340034E134F5340534003445
:1020F200CA349A343B3444346934733474346134AA
:102102006E34633465343A342034253432342E3418
:10211200313466340034643465346D343A342034F6
:08212200253435347534003416
:102D0E000A128A15D5220A168A118316031789010B
:102D1E0088010313051083121014101390109012D3
:102D2E00101210158F018E01971117159710171489
:102D3E00950196019D111D159D101D109B019C0165
:102D4E0083160C1583120C110B178B1783160D148B
:102D5E0083120D100B178B17831210300514DF0022
:102D6E00DF0BB72E64008312031341300510E00011
:102D7E00EE30DF00DF0BC12EE00BC12E640083129C
:102D8E0003136A08EC006908EB006708EB02680899
:102D9E00031CEC03EC029730A3009830A4004A30D9
:102DAE00A5006C08A1006B08A0000A128A155F240A
:102DBE000A168A112008A6002108A7002208A800DA
:102DCE000A128A156F240A168A112308E1002408B4
:102DDE00E2002508E3001430B2000630B30047309D
:102DEE00B4004030A301A401A5006108A60062084A
:102DFE00A7006308A8000A128A156F240A168A1102
:102E0E002308B5002408B6002508B7000A128A1553
:102E1E00EC260A168A113208E4003308E50034085D
:102E2E00E6000030F7010A128A158E220A168A1160
:102E3E006408D7006508D8006608D90077300A12F2
:102E4E008A110F200A168A110030F701F70A0A12AA
:102E5E008A158E220A168A116C08D8006B08D700C4
:102E6E0087300A128A110F200A168A11B32E4108D2
:102E7E00C7004208C8004308C9000310480D490D99
:102E8E00CC004408C7004508C8004608C900031016
:102E9E00480D490DCB004C080319612F4B084C020D
:102EAE004B080318692FC7004C08C7021930470298
:102EBE00031C682F4408C1004508C2004608C30021
:102ECE0008004B08031908004C084B020318772F13
:102EDE004C08C7004B08C7021930470203180800F8
:102EEE000630CA00C31BCA17C61B4A17C217C30136
:102EFE00C517C6014B084C0203189E2F0310C40DB4
:102F0E00C50DC60DCB034B084C060319992FCA03EA
:102F1E004A0807390319992F852F0310C30CC20CC9
:102F2E00C10CCC0A4C084B060319BA2F942F4C082F
:102F3E004B020318BA2F0310C10DC20DC30DCC03E3
:102F4E004B084C060319B62FCA034A080739031952
:102F5E00B62FA22F0310C60CC50CC40CCB0A4C08FE
:102F6E004B06031DB12FCA1FC52FFF30C106C20667
:102F7E00C306C10A0319C20A0319C30A4A1FD02F76
:102F8E00FF30C406C506C606C40A0319C50A0319CE
:102F9E00C60ACA014108C407420803110318420AAF
:102FAE00031DC507430803110318430A031DC60773
:102FBE00C61FEC2FFF30C406C506C606C40A031989
:102FCE00C50A0319C60ACA01CA0A4408F20045080E
:102FDE00F3004608F4004C08F5004A08F6000A1201
:102FEE008A1569277208C1007308C2007408C300ED
:022FFE000800C9
:02400E00E2E3EB
:00000001FF
