:100000000A128A11D52C00308A000408840A82075B
:100010000034013400340A34003464340034E834E9
:10002000033410342734643465346D343A34253461
:10003000753400346334633470343A3425347534A1
:0200400000348A
:1009AA00AA01AB0183010A128A11DB2C0A128A11ED
:1009BA005E260A128A118316FF30071187108600F5
:1009CA000317890188018312031391015230831698
:1009DA00920083128C109210121412139212121295
:1009EA009211121597151715971017100618022D40
:1009FA00061CFD2CAA0A0319AB0A86180C2D861CA4
:100A0A00042D0130AA020030031CAB03AB0295018E
:100A1A002A032B04031D132D0C30352D2A08023A04
:100A2A002B04031D1A2D1930352D2A08033A2B04DD
:100A3A00031D212D2530352D2A08043A2B04031DC8
:100A4A00282D3130352D2A08053A2B04031D2F2D68
:100A5A003D30352D2A08063A2B04031D372D4A301E
:100A6A0095003F2D2A08073A2B04031D3F2DAA01A2
:100A7A00AA0AAB010030F5010A128A11DE270A120E
:100A8A008A112B08FD002A08FC000B300A128A1171
:100A9A0062250A128A110030F501F50A0A128A1132
:100AAA00DE270A128A111508FC001230FD010A120B
:100ABA008A1162250A128A11FB2CA7007C30A20037
:100ACA002708A70A84000A128A1103200A128A1127
:100ADA00A900A90803190800253A0319792D29083C
:100AEA00DF250A128A11652D2708A70A84000A122F
:100AFA008A1103200A128A11A900003A0319DE2D6D
:100B0A00753A0319892D652D220884000008A3006F
:100B1A00840A0008A400A20AA20AA901A90A0310C9
:100B2A00290D013E84000A128A1103200A128A1131
:100B3A00A0000A128A1103200A128A11A1002402B3
:100B4A00031DA92D20082302031CB02DA90A290878
:100B5A00053A031D942D2908A800DA2D0A30F7005A
:100B6A00F8010310280D013E84000A128A1103209D
:100B7A000A128A11F0000A128A1103200A128A1133
:100B8A00F1002408F3002308F200E1250A128A1171
:100B9A007108FA007008F9000B260A128A11770800
:100BAA00303EA900DF250A128A11A803280FB32DA7
:100BBA00652D0800F9002F2EF401F5017108700463
:100BCA000319062EF601F60AF11BEF2D0310F00D9C
:100BDA00F10DE82D0310F40DF50D71087302031DD4
:100BEA00F82D70087202031C022E7008F2027108B6
:100BFA00031CF303F30274140310F10CF00CF60B4C
:100C0A00EF2D7508F1007408F000080078087704E1
:100C1A0003192A2EFB01FB0AF81B172E0310F70DE6
:100C2A00F80D102E78087A02031D1D2E7708790216
:100C3A00031C262E7708F9027808031CFA03FA0225
:100C4A000310F80CF70CFB0B172E7A08F80079083A
:100C5A00F7000800F800552E0030F001F00A1927B5
:100C6A000A128A11A9270A128A11003803190800E0
:100C7A00372E0030F501F50ADE2F7808D0270A1240
:100C8A008A11031C08007808F000013019270A129B
:100C9A008A11A9270A128A110038031908004E2E50
:100CAA0078080A3A03193E2E063A0319312E422EC3
:100CBA000800831688118810081108128812081370
:100CCA00881383120330881188100811F7008A30BC
:100CDA00F6005630F500F50B702EF60B702EF70B5A
:100CEA00702E772E3030F000003019270A128A1140
:100CFA000230F7004530F600A930F500F50B832ED7
:100D0A00F60B832EF70B832E8A2E3030F00000303C
:100D1A0019270A128A110230F7004530F600A93065
:100D2A00F500F50B962EF60B962EF70B962E9D2EAA
:100D3A003230F000003019270A128A110330F70006
:100D4A008A30F6005630F500F50BA92EF60BA92EBF
:100D5A00F70BA92EB02E0330F7008A30F600563072
:100D6A00F500F50BB62EF60BB62EF70BB62EBD2EEA
:100D7A000330F7008A30F6005630F500F50BC32E23
:100D8A00F60BC32EF70BC32ECA2EA9270A128A11F5
:100D9A000038031DCA2E2830F000003019270A1225
:100DAA008A11A9270A128A110038031DD62E083083
:100DBA00F000003019270A128A11A9270A128A118B
:100DCA000038031DE22E0C30F000003019270A12F9
:100DDA008A11A9270A128A110038031DEE2E003043
:100DEA00F001F00A19270A128A11A9270A128A1190
:100DFA000038031DFA2E0430F000003019270A12B9
:100E0A008A11A9270A128A110038031D062F0030F9
:100E1A00F001F00A19270A128A11A9270A128A115F
:100E2A00003803190800122FF3008316031308125F
:100E3A00881208138813831288107308031D8814F4
:100E4A002130F100F10B272FFD2721300811F10085
:100E5A00F10B2D2FFD2788117008F400740E01394B
:100E6A00F100710C031C3C2FFD2708163E2FFD27AD
:100E7A000812740EF100710C0139F200720C031C95
:100E8A00492FFD2788164B2FFD278812740EF62747
:100E9A000A128A11031C542FFD270817562FFD2703
:100EAA000813740D740D0139F100710C031C602FC5
:100EBA00FD278817622FFD2788132130F100F10BD7
:100ECA00642FFD2721308815F100F10B6A2FFD27C9
:100EDA00881174080139F100710C031C772FFD2762
:100EEA000816792FFD270812740C0139F100710CCC
:100EFA00031C822FFD278816842FFD278812740C65
:100F0A00F100710C0139F200720C031C8F2FFD27BE
:100F1A000817912FFD270813740CF6270A128A1155
:100F2A00031C9A2FFD2788179C2FFD278813213031
:100F3A00F100F10B9E2FFD2721308815F100F10BEE
:100F4A00A42FFD2788110800831603130816881694
:100F5A00081788178312213008158810F000F00B43
:100F6A00B42FFD2721308815F000F00BBA2F00307E
:100F7A00FD27881B0130F10021308811F000F00BA9
:100F8A00C42FFD2721308815F000F00BCA2FFD274A
:100F9A00881171080800F1007F30F001710203180E
:100FAA00DC2F20307102031CDC2FF001F00A700CD8
:100FBA000800F60075080319E52F4030F700E62F00
:100FCA00F7017608F70777088038F000003019270C
:100FDA000A128A11A9270A128A110038031908006D
:100FEA00EF2FF100F10C710C0139F200720C0800BC
:060FFA008312031308003E
:02400E00E2E3EB
:00000001FF
