:060000000A128A110C280F
:10000800FE00030EF0000A08F1000A128A116E2899
:100018000A128A117D28F200F208031D16283F30C3
:1000280054208700720B1B28063054208700720862
:10003800023A031D22285B30542087007208033AD5
:10004800031D29284F30542087007208043A031DE5
:1000580030286630542087007208053A031D372877
:100068006D30542087007208063A031D3E287D3003
:10007800542087007208073A031D4528073054208A
:1000880087007208083A031D4C287F3054208700E7
:100098007208093A031D08006F30542087000800D1
:1000A80083120313080083160317890188010313B9
:1000B80006148501FF3083128500831687010B160D
:1000C8008B108B17011373080A128A110F200A125A
:1000D8008A1167280930730203187428F30A7528EF
:1000E800F3018B1071088A00700E8300FE0E7E0EDD
:0C00F8000900F30183010A128A11572845
:02400E00E2E3EB
:00000001FF
