:060000000A128A110C280F
:10000800FE00030EF3000A08F4000A128A1165289C
:100018000A128A11A8280A308312A00079084920F8
:100028000A128A11F7000A30F801A00079082E2078
:10003800F500F601013E84000A128A1198200A127E
:100048008A1187007708013E84000A128A119820D5
:1000580088000800A100A301200803194728A2016D
:10006800A20AA01B3A280310A00D34280310A30DE0
:1000780020082102031C44282008A102231403108D
:10008800A00CA20B3A2823080800A2000830A300FD
:10009800A4012208A10007300310A10CFF3E0310A1
:1000A800031D5128240D2104A4000310A20D2008CB
:1000B8002402031C61282008A402A30B4D2824084D
:1000C80008000230F2004530F100A930F000F00BD2
:1000D8006B28F10B6B28F20B6B28722864307902BD
:1000E80003187828F90A7928F9018B1074088A000E
:1000F800730E8300FE0E7E0E090083160317890116
:100108008801031306148501FF30831285008316C6
:10011800870188010B168B108B1701130A128A119D
:100128000F200A128A11922800308A000408840AD3
:1001380082070034C034F934A434B034993492348A
:100148008234F83480349034F90183010A128A1118
:020158008128FC
:02400E00E2E3EB
:00000001FF
