:060000000A128A11B52F5F
:100F6A00F001F10183010A128A11BB2F8316FF30A7
:100F7A0007118710860088018312081288128316C7
:100F8A000317890188018312031391018C109210AF
:100F9A001214121392121212921112159715171592
:100FAA00971017100618DE2F061CD92FF001F00A29
:100FBA00F1018618E52F861CE02F0230F000F101BE
:100FCA007008023A7104031DF32F523083169200FF
:100FDA0039308312950088160812D72F70037104CE
:100FEA00031DD72F7C308316920070308312950030
:060FFA0088120816D72F33
:02400E00E2E3EB
:00000001FF
