:060000000A128A110C280F
:10000800FE00030EF0000A08F1000A128A118F2F71
:100018000A128A11BA2F8316AA005630A4008C2718
:100028002A08AA0A84000A168A1100200A128A11CC
:10003800B800B80803190800253A03192828380811
:1000480009250A128A111328AF01B001A801A901D4
:100058002A0884000A168A1100200A128A117725B4
:100068000A128A11031C5C28AF01B0013008F300A2
:100078002F08F2000A30F400F50185252A088400CB
:100088000A168A1100200A128A113B270A128A11BD
:10009800AF007727B000AA0A2A0884000A168A1136
:1000A80000200A128A1177250A128A1103183A28A1
:1000B8002A0884000A168A1100200A128A112E3A88
:1000C800031D8F282917AA0AB601B7012A08840038
:1000D8000A168A1100200A128A1177250A128A1133
:1000E800031C98283708F3003608F2000A30F40099
:1000F800F50185252A0884000A168A1100200A12AB
:100108008A113B270A128A11B60077270A128A1128
:10011800B700AA0A6A28B601B7012916982829152E
:10012800AB28C030A804AB282A08AA0A84000A16FB
:100138008A1100200A128A11B800003A0319082D02
:10014800663A03199328133A03199528132883123A
:100158000730DA01831629058312DB005A040319D4
:10016800E42B8316291EBB280630B600B7012408E5
:10017800840083130008B300840A0008B400840ACA
:100188000008B5000330A4073308F2003408F30070
:100198003508F400F501F601F7014B250A128A111A
:1001A8000318E7283308F2003408F3003508F40090
:1001B800BA260A128A117208B3007308B4007408C8
:1001C800B5000330A804B101B20135083404330482
:1001D80003197E29B330840085270A128A11840AFC
:1001E8000008DC00840A0008DD000F300310DD0C75
:1001F800DC0CDB0CDA0CFF3E031DFA285B088316C7
:10020800B20083125A088316B1008230B201B107D6
:10021800031CB203FF30B107031CB2030330F20022
:10022800F3013208F5003108F40085257308B2009F
:100238007208B1000A30F800F9013208FB003108F1
:10024800FA000A128A1569260A128A117908831691
:10025800B2007808B100B21F3529FF30B107031C7E
:10026800B2033103FF3A0A128A15D7240A128A11F7
:1002780025270A128A115227831625088312B400EB
:10028800831626088312B500831627088312B60042
:100298000A128A15EC260A128A1131088316A5005B
:1002A800831232088316A600831233088316A70028
:1002B80070270A128A118030F501F6003F30F700E6
:1002C8004B250A128A1103186E29FF30B107031C47
:1002D800B2037E2970270A128A112030F501F60030
:1002E8004130F7004B250A128A11031C7E29B10AF6
:1002F8000319B20A3708803AFF0080307F02031DD5
:1003080087290D3036020318B2298C2736080A12BD
:100318008A154C210A128A114C08C0004D08C100E8
:100328004E08C200831633088312C30083163408AC
:100338008312C400831635088312C5000A168A1171
:100348003E270A128A1140088316B3008312410817
:100358008316B400831242088316B5008C2732082E
:10036800803AFF0080307F02031DBC290A30310229
:100378000318DD298C2735083404330403191E2A91
:10038800330847270A128A119E250A128A1127085C
:10039800260425042404031D1E2A83163208803AE5
:1003A800FF0080307F02031DDB2902303102031C6D
:1003B8001E2A8C2770270A128A117030F50089309E
:1003C800F6004030F7004B250A128A110318EE296F
:1003D800F730EF29F830B107031CB20331080A12CD
:1003E8008A15D7240A128A1125270A128A11F200BF
:1003F8003408F3003508F4002508F5002608F6004F
:100408002708F70042260A128A1175088316A300E6
:100418007408A2007308A1007208A0002308AE00A7
:100428002208AD002108AC002008AB00B301B401DC
:10043800B5015F2A8C27330847270A128A119E259F
:100448000A128A1117270A128A118316AB002E087E
:100458008312A30083162D088312A20083162C088A
:100468008312A10083162B088312A000C2260A1249
:100478008A112008CC002108CD002208CE0083165E
:1004880033088312CF00831634088312D0008316F2
:1004980035088312D100E2260A128A114C08831605
:1004A800B30083124D088316B40083124E088316D6
:1004B800B500B101B201B801B80AFA260A168A11C4
:1004C80000200A128A11DB000A168A1100200A127B
:1004D8008A11DC000A168A1100200A128A11DD002E
:1004E8000A168A1100200A128A11DE0083162E02CB
:1004F800031D8E2A83125D0883162D02031D8E2A82
:1005080083125C0883162C02031D8E2A83125B0853
:1005180083162B02031C952AB80A38080A3A031DC9
:10052800612A360838078312DA0083163708031859
:10053800370AB81BFF3E8312DB008316310883128B
:100548005A07DC00831632080318320A83125B0745
:10055800DD005C088316AF0283125D088316031C56
:10056800B003B002370836040319BE2AFF30AF07BC
:10057800031CB00328080339031DD12A3008803A28
:10058800FF0080307F02031DCB2A01302F02031C9D
:10059800D72A203009250A128A11FF308C27AF0785
:1005A800031CB003C22A8C272808033903190A2B15
:1005B8002D30072B04270A128A11FA260A168A11E7
:1005C80000200A128A11F2000A168A1100200A1263
:1005D8008A11F3000A168A1100200A128A11F400FF
:1005E8000A168A1100200A128A110C270A128A1187
:1005F800F9250A128A1132270A128A110D250A12C0
:100608008A112508303E09250A128A118C27B80359
:10061800380FDE2A3208803AFF0080307F02031D3F
:10062800172B01303102031C232B303009250A1205
:100638008A11FF308C27B107031CB2030E2B8C27BD
:100648003708803AFF0080307F02031D2D2B0930C8
:100658003602031C322B08308C27342B8C273608A3
:10066800B8008312DA00DB01DA1BDB038316B6025B
:1006780083125B088316031CB703B70238080319F3
:10068800492B2E3009250A128A118C2738080A129C
:100698008A15D7240A128A114008B4004108B50007
:1006A8004208B6008316330852270A128A15EC2628
:1006B8000A128A113108A4003208A5003308A600DE
:1006C8009E250A128A1117270A128A11D12B04278C
:1006D8000A128A11FA260A168A1100200A128A11A9
:1006E800F2000A168A1100200A128A11F3000A166B
:1006F8008A1100200A128A11F4000A168A110020B1
:100708000A128A110C270A128A11F9250A128A116B
:1007180032270A128A110D250A128A112508303E3D
:1007280009250A128A118C27FA260A168A1100202E
:100738000A128A11A5000A168A1100200A128A11C3
:10074800A6000A168A1100200A128A11A7000A16A2
:100758008A1100200A128A11A80083162E08831213
:10076800AC0083162D088312AB0083162C08831265
:10077800AA0083162B088312A9000D250A128A11D4
:1007880028088316AE00831227088316AD0083124B
:1007980026088316AC00831225088316AB00B8031D
:1007A800380F6B2B37083604031913283030092506
:1007B8000A128A11FF308C27B607031CB703D62B01
:1007C800831624088400831385270A128A115A087D
:1007D8008316AB0083125B088316AC00AD01AE0133
:1007E800A40AA40A37083604031D022C2E082D0477
:1007F8002C042B040319B60A0319B70AB801B80A5E
:10080800FA260A168A1100200A128A11DB000A1633
:100818008A1100200A128A11DC000A168A110020A7
:100828000A128A11DD000A168A1100200A128A119A
:10083800DE0083162E02031D312C83125D088316F9
:100848002D02031D312C83125C0883162C02031D14
:10085800312C83125B0883162B02031C382CB80A30
:1008680038080A3A031D042C38085D270A128A1131
:100878003708803A83125C02031D462C831636081B
:1008880083125A0203184C2C8C273608B800642CA3
:10089800831667270A128A113708803A8312DC0008
:1008A8005B08803A5C02031D5C2C5A0883163602EA
:1008B8000318642C8C273808B600B701B61BB70399
:1008C8008C2730082F040319712C280803390319C1
:1008D800712CFF30AF07031CB003291F8E2C37087B
:1008E800803A8312DA0083163008803A83125A025B
:1008F800031D812C83162F08360203188B2C8C2796
:100908003608AF023708031CB003B0028E2C8C27C0
:10091800AF01B00138085D270A128A113008803A01
:1009280083125C02031D9C2C83162F0883125A0223
:100938000318AA2C831667270A128A11AF0283129A
:100948005B088316031CB003B002AD2C8C27AF01E3
:10095800B00130082F040319BE2C203009250A12D3
:100968008A11FF308C27AF07031CB00330082F040F
:10097800031DB12C280803390319C62C2D3009256D
:100988000A128A11FF308C27B607031CB703360AF0
:100998000319370A031913280A308312A500A60180
:1009A800A701A801831636088312DA000310DA0DAE
:1009B80003105A0D4F3E84000A168A1100200A12AD
:1009C8008A11F2000A168A1100200A128A11F3000D
:1009D8000A168A1100200A128A11F4000A168A11CE
:1009E80000200A128A110C270A128A11F9250A1204
:1009F8008A1132270A128A110D250A128A1125082E
:100A0800303E8316B800C32C0800FB000A128A1572
:100A1800B62A28082704260425040319422DFA01BA
:100A2800FA0AA81B1D2D0310A50DA60DA70DA80DCC
:100A3800142D28082C02031D2B2D27082B02031D1B
:100A48002B2D26082A02031D2B2D25082902031CFD
:100A58003C2D2508A9022608031C260FAA022708F0
:100A6800031C270FAB022808031C280FAC02031035
:100A7800A80CA70CA60CA50CFA0B1D2D2C08A80079
:100A88002B08A7002A08A6002908A5000800F41FBB
:100A98005A2D7208003CF2007308031C730F003CC7
:100AA800F3007408031C740F803CF400F71F692DD1
:100AB8007508003CF5007608031C760F003CF6002C
:100AC8007708031C770F803CF7008030F406F706A0
:100AD80077087402031D080076087302031D0800D6
:100AE800750872020800F3003A30F2017302031825
:100AF800832D30307302031C832DF201F20A720C2D
:100B08000800F601F701721C8F2D7408F607031808
:100B1800F70A7508F7070310F40DF50D0310F30C29
:100B2800F20C73087204031D872D7708F30076080A
:100B3800F20008007E270A128A110310290D2A0DD7
:100B4800B000B008031DAD2DA401A501A601A701A1
:100B580008007E270A128A1117300310AA0CA90C64
:100B6800A80CFF3E031DB12D2808AB00A517A60150
:100B78002408AC002508AD002608AE008E30AF0171
:100B8800B002B01FD42D3008803A8F3E031CA82D28
:100B98000310AF0CAE0CAD0CAC0CB00FCC2DE22D8D
:100BA800183030020318A82DB0080319E22D0310DD
:100BB800AC0DAD0DAE0DAF0DB003D82D2B0803193C
:100BC800F02DAC09AD09AE09AF09AC0A0319AD0A9D
:100BD8000319AE0A0319AF0A2F08A7002E08A600AA
:100BE8002D08A5002C08A40008008312A001A1016B
:100BF800A201A30175087404730472040319392E41
:100C0800A401A40AF51B0E2E0310F20DF30DF40D2A
:100C1800F50D052E0310A00DA10DA20DA30D75084D
:100C28007902031D212E74087802031D212E7308F2
:100C38007702031D212E72087602031C332E7208D8
:100C4800F6027308031C730FF7027408031C740F71
:100C5800F8027508031C750FF90220140310F50C2F
:100C6800F40CF30CF20CA40B0E2E2308F50022084A
:100C7800F4002108F3002008F20008007208F800C8
:100C88007308F9007408FA000310790D7A0D8312BD
:100C9800A500A508031D552EF201F301F401F50185
:100CA80008007508F8007608F9007708FA000310BC
:100CB800790D7A0DA400A4080319502E7F30F3177C
:100CC800F401F617F701A001A101A201A301A502F1
:100CD80098302407F800A5021830A4000310A00DCE
:100CE800A10DA20DA30D77087402031D812E7608AD
:100CF8007302031D812E75087202031C8F2E75085E
:100D0800F2027608031C760FF3027708031C770AB1
:100D1800F40220140310F20DF30DF40DA40B722E3F
:100D2800A51FA32E2508803A973E031C502E0310BA
:100D3800A30CA20CA10CA00CA50F9B2EB12E183051
:100D480025020318502EA5080319B12E0310A00D73
:100D5800A10DA20DA30DA503A72E2308F5002208B7
:100D6800F4002108F3002008F20008007408730456
:100D78007204031908008030F40608008E30FA0067
:100D8800FF3023050319CF2E0310A30CA20CA10CCE
:100D9800A00CFA0AC42E2008F2002108F300220849
:100DA800F4007A08F500F6010A128A156927720814
:100DB800A0007308A1007408A20008008030CE06C5
:100DC8004F08C0005008C1005108C2004C08C300B9
:100DD8004D08C4004E08C5000A168A113E2740086F
:100DE800CC004108CD004208CE0008003808831224
:100DF800DA000310DA0D03105A0D4F3E8400080084
:100E08000A308312A500A601A701A80183160800CD
:100E1800F50083162E08F9002D08F8002C08F700B5
:100E28002B08F600080027088316AE008312260850
:100E38008316AD00831225088316AC00831224089C
:100E4800080040088316A500831241088316A600EF
:100E5800831242088316A700330808007508AC00FF
:100E68007408AB007308AA007208A900080072078A
:100E78008312DA000030031801307307DB005A08C8
:100E8800D03E831608008312A40083163408831208
:100E9800A500831635088312A60008008312B10046
:100EA800831634088312B200831635088312B30000
:100EB80008008312DA00DB01DA1BDB035B08803AE7
:100EC800DC0083160800031338088312DA00DB01FC
:100ED800DA1BDB03831608002508F2002608F30056
:100EE8002708F400080083125B080318013EFF3E40
:100EF800831608002408A8002508A9002608AA00C7
:100F0800080000088312DA00840A0008DB000800E1
:100F1800831603130800831203130C1DB12F8316C5
:100F28000C1DB12F83121508E6001608E700E8012A
:100F3800E9015F08E6026008031C600FE702610828
:100F4800031C610FE8026208031C620FE90215081E
:100F5800DF001608E000E101E20183120C117108BC
:100F68008A00700E8300FE0E7E0E0900DF01E0018C
:100F7800E101E201E301E401E501E601E701E8013D
:0A0F8800E90183010A128A15052809
:10100A000A128A15E5220A128A158316031789011C
:10101A008801031307158801831210141013901006
:10102A009012101210158F018E0197111715971033
:10103A0017149501960183160C1583120C110B17C0
:10104A008B178316880197308312A4009830A50065
:10105A004A30A6006908A3006808A2006708A10030
:10106A006608A0000A128A11C2260A128A152008E6
:10107A00A7002108A8002208A9000A128A156F24CD
:10108A000A128A158030A701A8003F30A9000A1267
:10109A008A156F240A128A152408E3002508E40039
:1010AA002608E5000030F7010A128A159E220A1264
:1010BA008A156308D6006408D7006508D800773017
:1010CA000A128A110F200A128A150030F701F70A4C
:1010DA000A128A159E220A128A156908D900680816
:1010EA00D8006708D7006608D60082300A128A112B
:1010FA000F200A128A1528287230840000088312E9
:10110A000313A000840A0008A100840A0008A200B0
:10111A00840A0008A3000310220D230DAD00AD08B8
:10112A00031D9C28F201F301F401F5010800753052
:10113A003F210A128A150310220D230DAC00AC08B8
:10114A0003199728723084008030840A840A800444
:10115A007230840A84007530840A840A840A800101
:10116A0084008030840A840A80047530840A8400EA
:10117A007F30840A840A840A8001A801A901AA018D
:10118A00AB01AD02A0302C07A000AD022030AC00AC
:10119A0075300310A80DA90DAA0DAB0D3F210A1237
:1011AA008A15723084000008A400840A0008A50089
:1011BA00840A0008A600840A0008A7002308270258
:1011CA00031DF12822082602031DF1282108250201
:1011DA00031DF12820082402031C0D2975303F2124
:1011EA000A128A157230840020088002840A2108B3
:1011FA00031C210F8002840A2208031C220F80028A
:10120A00840A2308031C230A800203308402281458
:10121A00723084000310800D840A800D840A800DC8
:10122A00840A800DAC0BCD28AD1F28292D08803AE1
:10123A009F3E031C97280310AB0CAA0CA90CA80C00
:10124A00AD0F2029362920302D0203189728AD0822
:10125A00031936290310A80DA90DAA0DAB0DAD036C
:10126A002C292B08F5002A08F4002908F30028087D
:10127A00F200080084000008A000840A0008A10007
:10128A00840A0008A200840A0008A3000800831246
:10129A00D5006E305502031CD7290330FB000A30F3
:1012AA00F7006430F20055086C220A128A1551229E
:1012BA000A128A155B270A128A151C3E84000A162E
:1012CA008A1100200A128A15B1000A168A11002012
:1012DA000A128A15B2000A168A1100200A128A1501
:1012EA00B3000330FB006430F700550851220A129C
:1012FA008A155B270A128A15373E84000A168A1154
:10130A0000200A128A15B4000A168A1100200A124D
:10131A008A15B5000A168A1100200A128A15B60023
:10132A000A128A15EC260A128A1597220A128A15B7
:10133A000330FB000A30F20055086C220A128A15A3
:10134A005B270A128A15013E84000A168A110020B8
:10135A000A128A15B1000A168A1100200A128A1581
:10136A00B2000A168A1100200A128A158F220A125E
:10137A008A15EC260A128A153108CF003208D000E5
:10138A003308D1003F30B101B201B3004F08B400B5
:10139A005008B5005108B6000A128A15EC260A123E
:1013AA008A15882A0B305502031C2B2A0330FB00AE
:1013BA000A30F20055086C220A128A155B270A12B3
:1013CA008A15013E84000A168A1100200A128A151B
:1013DA00B1000A168A1100200A128A15B2000A16EA
:1013EA008A1100200A128A15B3000330FB000A3062
:1013FA00F700550851220A128A155B270A128A1524
:10140A001C3E84000A168A1100200A128A15B400AA
:10141A000A168A1100200A128A15B5000A168A11BC
:10142A0000200A128A15B6000A128A15EC260A1238
:10143A008A1597220A128A153F30B101B2018F220A
:10144A000A128A15EC260A128A15882A3F30B10137
:10145A00B201B3000330FB0055080A128A155B2754
:10146A000A128A15013E84000A168A1100200A12FD
:10147A008A15B4000A168A1100200A128A15B500C4
:10148A000A168A1100200A128A15B6000A128A154B
:10149A00EC260A128A15882AF800FA017708031935
:1014AA006A2AF901F90AF71B5D2A0310F70D572A70
:1014BA000310FA0D77087802031C672A7708F802E6
:1014CA007A140310F70CF90B5D2A7A080800F40065
:1014DA000830F500F6017408F30007300310F30C26
:1014EA00FF3E0310031D742A760D7304F6000310E1
:1014FA00F40D72087602031C842A7208F602F50BB0
:10150A00702A760808003108CC003208CD0033086A
:10151A00CE000800B3005208B4005308B5005408BE
:10152A00B60008003108D2003208D3003308D400CC
:10153A000800F80077080319A52A4030F900A62AFE
:10154A00F9017808F90779088038F2000030A023F9
:10155A000A128A1530240A128A150038031908005B
:10156A00AF2AFA00DC2A0030F201F20AA0230A129A
:10157A008A1530240A128A15003803190800BE2A6F
:10158A000030F701F70A9E2A7A0857240A128A15A8
:10159A00031C08007A08F2000130A0230A128A15F7
:1015AA0030240A128A15003803190800D52A7A0845
:1015BA000A3A0319C52A063A0319B82AC92A080099
:1015CA0083168811881008110812881208138813C4
:1015DA0083120330881188100811F9008A30F80044
:1015EA005630F700F70BF72AF80BF72AF90BF72A08
:1015FA00FE2A3030F2000030A0230A128A15023087
:10160A00F9004530F800A930F700F70B0A2BF80B60
:10161A000A2BF90B0A2B112B3030F2000030A023D1
:10162A000A128A150230F9004530F800A930F7008D
:10163A00F70B1D2BF80B1D2BF90B1D2B242B32300E
:10164A00F2000030A0230A128A150330F9008A300A
:10165A00F8005630F700F70B302BF80B302BF90B4C
:10166A00302B372B0330F9008A30F8005630F70058
:10167A00F70B3D2BF80B3D2BF90B3D2B442B03307D
:10168A00F9008A30F8005630F700F70B4A2BF80BAE
:10169A004A2BF90B4A2B512B30240A128A1500388F
:1016AA00031D512B2830F2000030A0230A128A159C
:1016BA0030240A128A150038031D5D2B0830F20007
:1016CA000030A0230A128A1530240A128A1500381B
:1016DA00031D692B0C30F2000030A0230A128A1570
:1016EA0030240A128A150038031D752B0030F201C6
:1016FA00F20AA0230A128A1530240A128A1500381F
:10170A00031D812B0430F2000030A0230A128A152F
:10171A0030240A128A150038031D8D2B0030F2017D
:10172A00F20AA0230A128A1530240A128A150038EE
:10173A0003190800992BF50083160313081288125F
:10174A0008138813831288107508031D8814213022
:10175A00F300F30BAE2B6C2421300811F300F30BCA
:10176A00B42B6C2488117208F600760E0139F30046
:10177A00730C031CC32B6C240816C52B6C2408128B
:10178A00760EF300730C0139F400740C031CD02B91
:10179A006C248816D22B6C248812760E65240A12C1
:1017AA008A15031CDB2B6C240817DD2B6C24081309
:1017BA00760D760D0139F300730C031CE72B6C24AC
:1017CA008817E92B6C2488132130F300F30BEB2BD9
:1017DA006C2421308815F300F30BF12B6C2488114B
:1017EA0076080139F300730C031CFE2B6C240816CF
:1017FA00002C6C240812760C0139F300730C031CBC
:10180A00092C6C2488160B2C6C248812760CF30095
:10181A00730C0139F400740C031C162C6C24081781
:10182A00182C6C240813760C65240A128A15031CDA
:10183A00212C6C248817232C6C2488132130F30064
:10184A00F30B252C6C2421308815F300F30B2B2C79
:10185A006C248811080083160313081688160817C3
:10186A0088178312213008158810F200F20B3B2CDE
:10187A006C2421308815F200F20B412C00306C24C4
:10188A00881B0130F30021308811F200F20B4B2C37
:10189A006C2421308815F200F20B512C6C2488112B
:1018AA0073080800F3007F30F20173020318632CF7
:1018BA0020307302031C632CF201F20A720C080036
:1018CA00F300F30C730C0139F400740C0800831252
:1018DA00031308002708AA002808AB002908AC004F
:1018EA0003102B0D2C0DB100B108031D802CA4018F
:1018FA00A501A60108002408AA002508AB002608AD
:10190A00AC0003102B0D2C0DB200B208031D912C54
:10191A00A401A501A60108008930AE01AF01B001FA
:10192A003207AA00B1022908B2002608B20680309E
:10193A00B2051830A817A901A517A601AD00031012
:10194A00AE0DAF0DB00D26082902031DB22C2508D5
:10195A002802031DB22C24082702031CC02C2408C9
:10196A00A7022508031C250FA8022608031C260A1D
:10197A00A9022E140310A70DA80DA90DAD0BA42CB6
:10198A002E08F2002F08F3003008F4003108F500A1
:10199A003208F60069277208A4007308A5007408C3
:1019AA00A60008008312CA00CA1FA32DCA09CA0AC0
:1019BA004A08803A123E031C472D0A30CB270A12E6
:1019CA008A15AF260A128A157308FB007208FA00F4
:1019DA0069260A128A15F8271C3E84000A168A11FB
:1019EA0000200A128A15B1000A168A1100200A126A
:1019FA008A15B2000A168A1100200A128A15E027EF
:101A0A000A128A15FA1BFB0369260A128A15C327CA
:101A1A00373E84000A168A1100200A128A15B40079
:101A2A000A168A1100200A128A15B5000A168A11A6
:101A3A0000200A128A15B600EC260A128A15AE2769
:101A4A000A128A15F41BF503AF260A128A15BB2758
:101A5A00013E84000A168A1100200A128A15B10072
:101A6A000A168A1100200A128A15B2000A168A1169
:101A7A0000200A128A15E8270A128A15EC260A1289
:101A8A008A15A72F4A08803A753E031C8C2D0A3006
:101A9A00F200F3014A08F400F501F41BF503AF263E
:101AAA000A128A15BB27013E84000A168A110020F1
:101ABA000A128A15B1000A168A1100200A128A151A
:101ACA00B2000A168A1100200A128A15F0270A1291
:101ADA008A15FA1BFB0369260A128A15C3271C3EBC
:101AEA0084000A168A1100200A128A15B4000A16FE
:101AFA008A1100200A128A15B5000A168A110020D6
:101B0A000A128A15B600EC260A128A15A72F033084
:101B1A00FB004A085B27013E84000A168A1100204E
:101B2A000A128A15C0000A168A1100200A128A159A
:101B3A00C1000A168A110020C20008004A08803A29
:101B4A00123E031C0D2E0A30CB270A128A15AF2625
:101B5A000A128A157308FB007208FA0069260A122B
:101B6A008A15F827433E84000A168A1100200A12B1
:101B7A008A15B1000A168A1100200A128A15B200C3
:101B8A000A168A1100200A128A15E0270A128A15F3
:101B9A00FA1BFB0369260A128A15C3275E3E8400D4
:101BAA000A168A1100200A128A15B4000A168A1126
:101BBA0000200A128A15B5000A168A1100200A1294
:101BCA008A15B600EC260A128A15AE270A128A1559
:101BDA00F41BF503AF260A128A15BB27283E840098
:101BEA000A168A1100200A128A15B1000A168A11E9
:101BFA0000200A128A15B2000A168A1100200A1257
:101C0A008A15E8270A128A15EC260A128A15A72FBE
:101C1A004A08803A753E031C522E0A30F200F3013C
:101C2A004A08F400F501F41BF503AF260A128A15D7
:101C3A00BB27283E84000A168A1100200A128A1538
:101C4A00B1000A168A1100200A128A15B2000A1671
:101C5A008A1100200A128A15F0270A128A15FA1B1D
:101C6A00FB0369260A128A15C327433E84000A1613
:101C7A008A1100200A128A15B4000A168A11002055
:101C8A000A128A15B5000A168A1100200A128A1544
:101C9A00B600EC260A128A15A72F0330FB004A0861
:101CAA005B27283E84000A168A1100200A128A1528
:101CBA00C0000A168A1100200A128A15C1000A16E3
:101CCA008A110020C20008008312A101F91F742E94
:101CDA00F809F909F80A0319F90AA101A10AFB1F6F
:101CEA007D2EFA09FB09FA0A0319FB0A0130A1063B
:101CFA00A201A301790878040319A22EA001A00A5F
:101D0A00F91B8B2E0310F80DF90D842E0310A20D6A
:101D1A00A30D79087B02031D942E78087A02031C0E
:101D2A009E2E7808FA027908031CFB03FB02221490
:101D3A000310F90CF80CA00B8B2E21080319AA2EFC
:101D4A00A209A309A20A0319A30A2308F90022086F
:101D5A00F8000800F701F51FB92EF409F509F40A8D
:101D6A000319F50AF701F70AF31FC02EF209F3095E
:101D7A00F20A0319F30A730872040319DF2EF60133
:101D8A00F60AF31BCC2E0310F20DF30DC52E7308C1
:101D9A007502031DD22E72087402031CDB2E720810
:101DAA00F4027308031CF503F5020310F30CF20C9A
:101DBA00F60BCC2E77080319E72EF409F509F40A75
:101DCA000319F50A7508F3007408F20008003108CF
:101DDA00B7003208B8003308B9000310380D390DBE
:101DEA00BA00BA08031DFD2EB101B201B301080001
:101DFA003408B7003508B8003608B9000310380DA2
:101E0A00390DBF00BF08031D0E2FB101B201B30186
:101E1A0008003F087B3EBA073308BF003608BF06F2
:101E2A008030BF050730B217B517B601BB01BC0138
:101E3A00BD01BE00311C292F3408D6270A128A1583
:101E4A000318360A031DBD070310B30CB20CB10CFC
:101E5A000310B40DB50DB60DBE0B1F2F0930BE0011
:101E6A00311C3F2F3408D6270A128A150318360A5E
:101E7A00031DBD070310B30CB20CB10C0310BD0C4B
:101E8A00BC0CBB0CBE0B352F3B08F2003C08F30020
:101E9A003D08F4003A08F5003F08F6006927720881
:101EAA00B1007308B2007408B3000800A100A001D1
:101EBA007B082118A0070310FB0D0310A10CA10831
:101ECA00031D5D2F2008080075080319712F740877
:101EDA0073047204031D7A2FF201F301F40108005E
:101EEA00F50A0310F40CF30CF20CFE307405031916
:101EFA00892F752FF50AF20A0319F30A0319F40A4E
:101F0A000310F40CF30CF20CFF3074050319932F31
:101F1A007F2FF5030310F20DF30DF40DF31F8E2F2F
:101F2A00751CF3130310F50C7508F900F801F70195
:101F3A007708F2047808F3047908F4047608031D94
:101F4A00F41708003108C0003208C1003308C20083
:101F5A0008003108C7003208C8003308C9000A302F
:101F6A00F200F3014A08F400F50108007208C30000
:101F7A007308C40043084307430708007808C500EC
:101F8A007908C6004508450745070800F800F90121
:101F9A004A08F400F501F41BF5036430F200F3017A
:101FAA000800BB07350803110318350A031DBC07CF
:101FBA00360803110800B3006430F800F9014A0832
:101FCA00FA00FB010800B3004708B4004808B5004E
:101FDA004908B6000800B3000A30F800F9014A08B7
:101FEA00FA00FB0108007808C3007908C400430816
:101FFA0043074307080010308A000408840A82074E
:10200A000034003480343F34CD34CC343D34D734BA
:10201A0023343C34123483343A34B734D134383428
:10202A00C63427343734383486343534C034D63459
:10203A003334CC342B343234703489343034E7348A
:10204A00DB342E34E5343C341E344234A2340D34AD
:10205A00003480343F340034203441340034C834EE
:10206A00423400347A34443440341C3446345034D4
:10207A00C3344734243474344934973418344B34D1
:10208A00BC34BE344C346B346E344E3403341534A1
:10209A0050347934AD346034F33449347134013412
:1020AA000034003400340A34003400340034643418
:1020BA00003400340034E83403340034003410347B
:1020CA00273400340034A0348634013400344034D8
:1020DA0042340F3400348034963498340034003457
:1020EA00E134F53405340034CA349A343B34663466
:1020FA00723465343A342034253436342E3431344B
:0C210A006634003425343634753400345B
:102E7C004008C6004108C7004208C8000310470DAF
:102E8C00480DCB004308C6004408C7004508C800DD
:102E9C000310470D480DCA004B080319612F4A084F
:102EAC004B024A080318692FC6004B08C60219309A
:102EBC004602031C682F4308C0004408C1004508A3
:102ECC00C20008004A08031908004B084A020318FC
:102EDC00772F4B08C6004A08C60219304602031861
:102EEC0008000630C900C21BC917C51B4917C117FA
:102EFC00C201C417C5014A084B0203189E2F0310C8
:102F0C00C30DC40DC50DCA034A084B060319992FEE
:102F1C00C903490807390319992F852F0310C20CCF
:102F2C00C10CC00CCB0A4B084A060319BA2F942FBC
:102F3C004B084A020318BA2F0310C00DC10DC20D65
:102F4C00CB034A084B060319B62FC90349080739A6
:102F5C000319B62FA22F0310C50CC40CC30CCA0A3C
:102F6C004B084A06031DB12FC91FC52FFF30C006E1
:102F7C00C106C206C00A0319C10A0319C20A491FB5
:102F8C00D02FFF30C306C406C506C30A0319C40AF2
:102F9C000319C50AC9014008C307410803110318E6
:102FAC00410A031DC407420803110318420A031DFA
:102FBC00C507C51FEC2FFF30C306C406C506C30AE0
:102FCC000319C40A0319C50AC901C90A4308F20046
:102FDC004408F3004508F4004B08F5004908F600D6
:102FEC000A128A1569277208C0007308C100740898
:042FFC00C200080007
:02400E00E2E3EB
:00000001FF
