:060000000A128A110C280F
:10000800FE00030EF0000A08F1000A128A11682C9B
:100018000A128A117B2C831688118810081108127D
:100028008812081388138312033088118810081166
:10003800F9008A30F8005630F700F70B2128F80B42
:100048002128F90B212828283030F20000305022CE
:100058000A128A110230F9004530F800A930F70079
:10006800F70B3428F80B3428F90B34283B283030A8
:10007800F200003050220A128A110230F90045308D
:10008800F800A930F700F70B4728F80B4728F90BB9
:1000980047284E283230F200003050220A128A11C6
:1000A8000330F9008A30F8005630F700F70B5A2869
:1000B800F80B5A28F90B5A2861280330F9008A30BE
:1000C800F8005630F700F70B6728F80B6728F90B8C
:1000D80067286E280330F9008A30F8005630F70098
:1000E800F70B7428F80B7428F90B74287B28E02286
:1000F8000A128A110038031D7B282830F2000030CC
:1001080050220A128A11E0220A128A110038031DAD
:1001180087280830F200003050220A128A11E022A3
:100128000A128A110038031D93280C30F20000309F
:1001380050220A128A11E0220A128A110038031D7D
:100148009F280030F201F20A50220A128A11E02296
:100158000A128A110038031DAB280430F20000305F
:1001680050220A128A11E0220A128A110038031D4D
:10017800B7280030F201F20A50220A128A11E0224E
:100188000A128A11003803190800C328B9002D3053
:10019800BE003908B90A84000A128A1100240A121A
:1001A8008A11BF00BF0803190800253A0319E1287E
:1001B8003F0899210A128A11CD28B601E828361677
:1001C800E828C030B604FB283908B90A84000A12A6
:1001D8008A1100240A128A11BF00003A03199829CB
:1001E8006C3A0319E328193A0319E528CD28361E75
:1001F8000E293E08840083130008BA00840A000808
:10020800BB00840A0008BC00840A0008BD00043052
:10021800BE071E293E08840083130008B100840A23
:100228000008B2003108BA003208BB00BC01BD01A9
:10023800BE0ABE0ABF01BF0A3F082D230A128A114F
:1002480000240A128A11B2000A128A1100240A1222
:100258008A11B3000A128A1100240A128A11B40002
:100268000A128A1100240A128A11B5003D02031DE0
:10027800472934083C02031D472933083B02031D64
:10028800472932083A02031C4E29BF0A3F080A3A96
:10029800031D20293F08B700B801B71BB803FF307A
:1002A800B707031CB803370A0319380A0319CD28FE
:1002B8000A30A500A601A701A80137082D230A12B4
:1002C8008A1100240A128A11F2000A128A110024E3
:1002D8000A128A11F3000A128A1100240A128A11DA
:1002E800F4000A128A1100240A128A11F5003D0846
:1002F800F9003C08F8003B08F7003A08F600D92155
:100308000A128A117508AC007408AB007308AA00B9
:100318007208A9009B210A128A112508303EBF00E5
:1003280099210A128A1153290800FB00212A28085A
:100338002704260425040319D029FA01FA0AA81B60
:10034800AB290310A50DA60DA70DA80DA2292808F5
:100358002C02031DB92927082B02031DB9292608D9
:100368002A02031DB92925082902031CCA292508C0
:10037800A9022608031C260FAA022708031C270F18
:10038800AB022808031C280FAC020310A80CA70C0A
:10039800A60CA50CFA0BAB292C08A8002B08A70063
:1003A8002A08A6002908A5000800A001A101A201A9
:1003B800A30175087404730472040319182AA401AC
:1003C800A40AF51BED290310F20DF30DF40DF50D3C
:1003D800E4290310A00DA10DA20DA30D7508790243
:1003E800031D002A74087802031D002A7308770287
:1003F800031D002A72087602031C122A7208F602EC
:100408007308031C730FF7027408031C740FF802B7
:100418007508031C750FF90220140310F50CF40C71
:10042800F30CF20CA40BED292308F5002208F400C4
:100438002108F3002008F2000800FA00472A0030DB
:10044800F201F20A50220A128A11E0220A128A11D3
:10045800003803190800292A0030F701F70A152B7C
:100468007A0807230A128A11031C08007A08F20086
:10047800013050220A128A11E0220A128A11003829
:1004880003190800402A7A080A3A0319302A063A5A
:100498000319232A342A0800F500831603130812C7
:1004A800881208138813831288107508031D88148E
:1004B8002130F300F30B5E2A3C2321300811F300AE
:1004C800F30B642A3C2388117208F600760E013972
:1004D800F300730C031C732A3C230816752A3C236B
:1004E8000812760EF300730C0139F400740C031C27
:1004F800802A3C238816822A3C238812760E3523CC
:100508000A128A11031C8B2A3C2308178D2A3C23C4
:100518000813760D760D0139F300730C031C972A26
:100528003C238817992A3C2388132130F300F30BC6
:100538009B2A3C2321308815F300F30BA12A3C2386
:10054800881176080139F300730C031CAE2A3C238A
:100558000816B02A3C230812760C0139F300730CF4
:10056800031CB92A3C238816BB2A3C238812760C24
:10057800F300730C0139F400740C031CC62A3C23E5
:100588000817C82A3C230813760C35230A128A1147
:10059800031CD12A3C238817D32A3C2388132130F3
:1005A800F300F30BD52A3C2321308815F300F30B15
:1005B800DB2A3C23881108008316031308168816C3
:1005C800081788178312213008158810F200F20BDB
:1005D800EB2A3C2321308815F200F20BF12A003077
:1005E8003C23881B0130F30021308811F200F20B04
:1005F800FB2A3C2321308815F200F20B012B3C2307
:10060800881173080800F3007F30F20173020318A1
:10061800132B20307302031C132BF201F20A720C05
:100628000800F800770803191C2B4030F9001D2B2F
:10063800F9017808F90779088038F200003050226B
:100648000A128A11E0220A128A11003803190800D6
:10065800262BB1000310B10D0310310D013E8400AB
:100668000800F300F30C730C0139F400740C080053
:1006780083120313080083160714880183121014C9
:100688001013901590149012101210110C1083165C
:100698000C140B178B1783128E018F010A128A1103
:1006A8000F200A128A115008F2005108F300FF3097
:1006B800F401F501F901F801F700F6000A128A11B0
:1006C80035240A128A117508CB007408CA00730809
:1006D800C9007208C8000E08C0000F08C100C20196
:1006E800C3014008C807410803110318013E031D50
:1006F800C907420803110318013E031DCA0743082E
:1007080003110318013E031DCB074B08CF004A080D
:10071800CE004908CD004808CC001A30C2005E302F
:10072800C1008630C000C00B972BC10B972BC20BA2
:10073800972B6400831203135008F2005108F3004A
:10074800FF30F401F501F901F801F700F6000A128B
:100758008A1135240A128A117508CB007408CA0058
:100768007308C9007208C8000E08C0000F08C1004D
:10077800C201C3014008C807410803110318013E1C
:10078800031DC907420803110318013E031DCA07C8
:10079800430803110318013E031DCB074B08C7008C
:1007A8004A08C6004908C5004808C4004C08C402E5
:1007B8004D08031C4D0FC5024E08031C4E0FC60200
:1007C8004F08031C4F0FC7020030F7010A128A11A5
:1007D80015230A128A114708B0004608AF004508D9
:1007E800AE004408AD0029300A128A11CA200A1244
:0407F8008A11572BE0
:1008000004308A000408840A82070034013400346A
:10081000003400340A3400340034003464340034CA
:1008200000340034E8340334003400341034273406
:1008300000340034A034863401340034403442346F
:100840000F34003480349634983400340034E1346A
:10085000F53405340034CA349A343B3425346C34CE
:100860006C34753448347A340034A001A101A201FB
:10087000A301721C4F2C7608A007770803110318F8
:10088000013E031DA107780803110318013E031D53
:10089000A207790803110318013E031DA3070310E3
:1008A000F60DF70DF80DF90D0310F50CF40CF30C23
:1008B000F20C7508740473047204031D392C2308A8
:1008C000F5002208F4002108F3002008F2000800D7
:1008D000831203130C1C742C83160C1C742C8312AF
:1008E000D00A0319D10A0C1071088A00700E830017
:1008F000FE0E7E0E0900C401C501C601C701C80174
:10090000C901CA01CB01CC01CD01CE01CF01D0017B
:0A091000D10183010A128A113F2B66
:02400E00E2E3EB
:00000001FF
