:060000000A128A110C280F
:10000800FE00030EF4000A08F5000A128A11E82817
:100018000A128A11902B8316031789018801FF3071
:10002800031396000B108B158B170B17860087018F
:100038008801831287008800C1288312031387016F
:1000480088010230A5004530A400A930A300A30B05
:100058002B28A40B2B28A50B2B2832280A128A112F
:100068009D220A128A11C12883120313870188016D
:100078000230A5004530A400A930A300A30B4228F4
:10008800A40B4228A50B422849280A128A114F229C
:100098000A128A11C12883120313870188010230CA
:1000A800A5004530A400A930A300A30B5928A40B30
:1000B8005928A50B592860280A128A1143230A12C5
:1000C8008A11C12883120313870188010230A50011
:1000D8004530A400A930A300A30B7028A40B7028F6
:1000E800A50B702877280A128A11F0210A128A11A2
:1000F800C12883120313870188010230A500453007
:10010800A400A930A300A30B8728A40B8728A50B5C
:1001180087288E280A128A1191210A128A11C12869
:1001280083120313870188010230A5004530A4001B
:10013800A930A300A30B9E28A40B9E28A50B9E28DC
:10014800A5280A128A1117230A128A11C1288312B4
:100158000313870188010230A5004530A400A930A7
:10016800A300A30BB528A40BB528A50BB528BC285C
:100178000A128A11EB220A128A1170182128F01823
:10018800382870194F28F0196628701A7D28F01A37
:100198009428701BAB28F01FC12883120313870112
:1001A80088010230A5004530A400A930A300A30BA4
:1001B800DB28A40BDB28A50BDB28E2280A128A110E
:1001C8006A230A128A11C1280B188B1D82298312EF
:1001D8000313061CF2287014F0100329861C0A2940
:1001E8000330F3008A30F2005630F100F10BFA28A0
:1001F800F20BFA28F30BFA2801297010F014701189
:10020800F0117012F0127013F0138229061D1D29C7
:100218000330F3008A30F2005630F100F10B122956
:10022800F20B1229F30B122919297010F01070150E
:100238000429861D31290330F3008A30F200563034
:10024800F100F10B2529F20B2529F30B25292C297F
:100258007010F0107011F0150529061E462903309C
:10026800F3008A30F2005630F100F10B3929F20B15
:100278003929F30B392940297010F0107011F01149
:1002880070160629861E5C290330F3008A30F200B6
:100298005630F100F10B4E29F20B4E29F30B4E2983
:1002A80055297010F0107011F0117012F01607290E
:1002B800061F70290330F3008A30F2005630F1002F
:1002C800F10B6429F20B6429F30B64296B298A2149
:1002D8000A128A1170170829861F82290330F30031
:1002E8008A30F2005630F100F10B7829F20B7829A8
:1002F800F30B78297F298A217013F0170B107508E2
:100308008A00740E8300FE0E7E0E09007010F01035
:100318007011F0117012F01208008030ED21880081
:10032800F601F7017708803AFF0080307F02031D4D
:100338009F29083076020318B6290630ED21A2005D
:100348001330A100B130A000A00BA829A10BA82947
:10035800A20BA829AF290314ED21880CF60A03196A
:10036800F70A96298030ED2187000730F600F7015B
:100378007708803AFF0080307F02031DC5290F30BF
:1003880076020318DC290630ED21A2001330A10003
:10039800B130A000A00BCE29A10BCE29A20BCE29EB
:1003A800D5290314ED21870CF60A0319F70ABC298D
:1003B800ED21870188010630A2001330A100B13079
:1003C800A000A00BE529A10BE529A20BE529EC2942
:1003D800080083120313080001304C228700F6013D
:1003E800F7017708803AFF0080307F02031DFE295D
:1003F800083076020318152A06304C22A200133062
:10040800A100B130A000A00B072AA10B072AA20B5C
:10041800072A0E2A03144C22870DF60A0319F70A35
:10042800F52901304C2288000730F600F7017708DB
:10043800803AFF0080307F02031D242A0F307602A5
:1004480003183B2A06304C22A2001330A100B13019
:10045800A000A00B2D2AA10B2D2AA20B2D2A342A8D
:1004680003144C22880DF60A0319F70A1B2A4C229A
:10047800870188010630A2001330A100B130A00026
:10048800A00B442AA10B442AA20B442A4B2A080099
:1004980083120313080001309A228700F601F7013E
:1004A8007708803AFF0080307F02031D5D2A0830FC
:1004B80076020318742A06309A22A2001330A1008B
:1004C800B130A000A00B662AA10B662AA20B662AEF
:1004D8006D2A9A220310870DF60A0319F70A542A7F
:1004E80001309A2288000730F600F7017708803A31
:1004F800FF0080307F02031D832A0F307602031825
:10050800080006309A22A2001330A100B130A000E2
:10051800A00B8C2AA10B8C2AA20B8C2A932A9A2234
:100528000310880DF60A0319F70A7A2A83120313AF
:1005380008008030E8228800F601F7017708803A41
:10054800FF0080307F02031DAB2A083076020318B3
:10055800C22A0630E822A2001330A100B130A00060
:10056800A00BB42AA10BB42AA20BB42ABB2AE822F6
:100578000310880CF60A0319F70AA22A8030E82229
:1005880087000730F600F7017708803AFF008030CF
:100598007F02031DD12A0F307602031808000630A7
:1005A800E822A2001330A100B130A000A00BDA2A83
:1005B800A10BDA2AA20BDA2AE12AE8220310870C17
:1005C800F60A0319F70AC82A831203130800013030
:1005D80083120313870080308800F601F70177083B
:1005E800803AFF0080307F02031DFC2A0830760223
:1005F80003180800063083120313A2001330A10069
:10060800B130A000A00B062BA10B062BA20B062BCA
:100618000D2B831203130310870D0310880CF60AA1
:100628000319F70AF32A8030831203138700013075
:100638008800F601F7017708803AFF0080307F02D2
:10064800031D282B08307602031808000630831291
:100658000313A2001330A100B130A000A00B322B6D
:10066800A10B322BA20B322B392B8312031303104D
:10067800870C0310880DF60A0319F70A1F2B06309A
:1006880083120313A2001330A100B130A000A00B05
:100698004B2BA10B4B2BA20B4B2B522BAA308312AB
:1006A8000313870088000630A2001330A100B13080
:1006B800A000A00B5D2BA10B5D2BA20B5D2B642B67
:1006C8005530831203138700880008000630831210
:1006D8000313A2001330A100B130A000A00B722BAD
:1006E800A10B722BA20B722B792BFF3083120313F1
:1006F800870088000630A2001330A100B130A000A6
:10070800A00B842BA10B842BA20B842B8B2B831285
:100718000313870188010800F001F601F70183013E
:060728000A128A110F28DD
:02400E00E2E3EB
:00000001FF
