:060000000A128A110E280D
:10000800FE00030E83120313A6000A08A7000A16AF
:100018008A11C22D0A128A11B62FB600A030AC0080
:1000280083163608B60A84000A168A1100200A12B6
:100038008A11C000C00803190800253A03192628A8
:100048004008902CB701B801B401B5013608840006
:100058000A168A1100200A128A11C7240A128A1164
:10006800031C5F288316B701B8018316380883126A
:10007800A90083163708AD270A128A11D6248316D9
:10008800360884000A168A1100200A128A11562797
:10009800B70024080318013EFF3EB800B60A360828
:1000A80084000A168A1100200A128A11C7240A122B
:1000B8008A11031839288316360884000A168A110B
:1000C80000200A128A112E3A031D97283517B60AFE
:1000D800BE01BF01360884000A168A1100200A12E0
:1000E8008A11C7240A128A11031C9D2883163F0807
:1000F8008312A90083163E08AD270A128A11D62456
:100108008316360884000A168A1100200A128A11FA
:1001180056270A128A11BE0024080318013EFF3E22
:10012800BF00B60A6E28BE01BF0135169D283515D9
:10013800AE2883163608B60A84000A168A110020EB
:100148000A128A11C000003A0319942C663A03195E
:100158009B2814280730A3013505A400230403199C
:10016800032C351EBA280630BE00BF012C088400B7
:1001780083130008BB00840A0008BC00840A000836
:10018800BD000330AC073B088312A80083163C0867
:100198008312A90083163D088312AA00AB01AC01A3
:1001A800AD019B240A128A110318F62883163B080E
:1001B8008312A80083163C088312A90083163D0801
:1001C8008312AA0047260A128A1128088316BB0040
:1001D800831229088316BC0083122A088316BD00DF
:1001E8000330B4048316B901BA013D083C043B044A
:1001F80003199F29BB3084000008A300840A000863
:10020800A400840A0008A500840A0008A6000F308C
:100218000310A60CA50CA40CA30CFF3E031D0C296F
:100228002408BA002308B9008230BA01B907031CB0
:10023800BA03FF30B907031CBA0303308312A800BE
:10024800A90183163A088312AB0083163908831272
:10025800AA00D62429088316BA0083122808831610
:10026800B9000A308312AE00AF0183163A08831230
:10027800B100831639088312B0000A128A156A265B
:100288000A128A112F088316BA0083122E088316C1
:10029800B900BA1F5329FF30B907031CBA03390341
:1002A800FF3A0A128A15D8240A128A1164270A12F8
:1002B8008A118B2783162D088312C60083162E08F1
:1002C8008312C70083162F088312C8000A128A15E2
:1002D800EC260A128A1143088316AD0083124408DB
:1002E8008316AE00831245088316AF0027270A122B
:1002F8008A118030AB01AC003F30AD009B240A125C
:100308008A1103188D29FF308316B907031CBA0315
:100318009F29831627270A128A112030AB01AC00C7
:100328004130AD009B240A128A11031C9F298316B1
:10033800B90A0319BA0A83163F08803AFF008030C9
:100348007F02031DA9290D303E020318D229B327C5
:100358003E080A128A1500210A128A115E08D20084
:100368005F08D3006008D40083163B088312D500C9
:1003780083163C088312D60083163D088312D700E3
:100388004F260A128A1152088316BB00831253089B
:100398008316BC00831254088316BD00B3273A089D
:1003A800803AFF0080307F02031DDC290A303902C1
:1003B8000318FD29B3273D083C043B0403194F2AC1
:1003C8003B0880270A128A11EF240A128A11390879
:1003D800380437043604031D4F2A83163A08803A36
:1003E800FF0080307F02031DFB2902303902031C05
:1003F8004F2AB32727270A128A117030AB00893099
:10040800AC004030AD009B240A128A1103180E2A52
:10041800F7300F2AF8308316B907031CBA033908D6
:100428000A128A15D8240A128A1164270A128A1114
:10043800A80083163C088312A90083163D0883127E
:10044800AA0083162D088312AB0083162E08831288
:10045800AC0083162F088312AD00D0250A128A112A
:100468002B088316AB0083122A088316AA0083126E
:1004780029088316A900831228088316A8002B08C8
:10048800B3002A08B2002908B1002808B000BB014F
:10049800BC01BD01902AB3273B0880270A128A11A4
:1004A800EF240A128A1172278316B00033088312C8
:1004B800B300831632088312B20083163108831200
:1004C800B100831630088312B0000A128A1552242C
:1004D8000A128A113008DE003108DF003208E00015
:1004E80083163B088312E10083163C088312E2005E
:1004F80083163D088312E30011270A128A115E0849
:100508008316BB0083125F088316BC008312600841
:100518008316BD00B901BA01C001C00A45270A16F1
:100528008A1100200A128A11A4000A168A110020D2
:100538000A128A11A5000A168A1100200A128A11C5
:10054800A6000A168A1100200A128A11A700270895
:100558003302031DB92A26083202031DB92A2508C9
:100568003102031DB92A24083002031CC02AC00A1C
:1005780040080A3A031D922A3E084007A3003F0894
:1005880003183F0AC01BFF3EA40039082307A50033
:100598003A0803183A0A2407A6002508B7022608CD
:1005A800031CB803B8023F083E040319DF2AFF30D2
:1005B800B707031CB80334080339031DF22A3808A7
:1005C800803AFF0080307F02031DEC2A0130370299
:1005D800031CF82A203095240A128A11FF3083164A
:1005E800B707031CB803E32AB327340803390319F0
:1005F8002C2B2D30292B4E270A128A1145270A1633
:100608008A1100200A128A118312A8000A168A1178
:1006180000200A128A11A9000A168A1100200A125B
:100628008A11AA000A168A1100200A128A11332791
:100638000A128A1188250A128A1195270A128A1124
:100648004A250A128A113508303E95240A128A1161
:100658008316C003400FFF2A3A08803AFF00803013
:100668007F02031D392B01303902031C452B303022
:1006780095240A128A11FF308316B907031CBA039E
:10068800302BB3273F08803AFF0080307F02031DDC
:100698004F2B09303E02031C542B0830B327562B2E
:1006A800B3273E08C000A300A401A31BA403BE02F5
:1006B8002408031CBF03BF0240080319652B2E3012
:1006C8009524831640080A128A15D8240A128A111A
:1006D8005208C6005308C7005408C80083163B08D0
:1006E80083128B270A128A15EC260A128A114308EC
:1006F800B6004408B7004508B800EF240A128A116A
:1007080072270A128A11F02B4E270A128A114527DE
:100718000A168A1100200A128A118312A8000A16E2
:100728008A1100200A128A11A9000A168A110020CB
:100738000A128A11AA000A168A1100200A128A11BE
:1007480033270A128A1188250A128A1195270A1254
:100758008A114A250A128A113508303E95240A1250
:100768008A11831645270A168A1100200A128A114F
:100778008312B5000A168A1100200A128A11B600DF
:100788000A168A1100200A128A11B7000A168A115D
:1007980000200A128A11B800831633088312BC009D
:1007A800831632088312BB00831631088312BA00FD
:1007B800831630088312B9004A250A128A113808AC
:1007C8008316B300831237088316B20083123608E3
:1007D8008316B100831235088316B000C003400F9A
:1007E800882B3F083E0403191428303095240A1238
:1007F8008A11FF308316BE07031CBF03F52B3F0881
:100808003E04031D0F2C330832043104300403194D
:10081800BE0A0319BF0A40089E270A128A113F0818
:10082800803A2502031D1A2C3E0823020318202CA7
:10083800B3273E08C000382CB3274008A300A40102
:10084800A31BA4033F08803AA5002408803A250288
:10085800031D302C23083E020318382CB327400808
:10086800BE00BF01BE1BBF03B327380837040319F6
:10087800452C340803390319452CFF30B707031CEE
:10088800B803351F5E2C3F08803AA3003808803A29
:100898002302031D512C37083E0203185B2CB32793
:1008A8003E08B7023F08031CB803B8025E2CB32702
:1008B800B701B80140089E270A128A113808803A01
:1008C8002502031D692C370823020318772CB32748
:1008D8004008A300A401A31BA403B7022408031C17
:1008E800B803B8027A2CB327B701B801380837041F
:1008F80003198B2C203095240A128A11FF30831695
:10090800B707031CB80338083704031D7E2C3408C6
:100918000339031914282D3095240A128A11142832
:10092800080083120313B1000A128A156A2AAA1F43
:10093800AA2C2808003CA8002908031C290F003C01
:10094800A9002A08031C2A0F803CAA00AD1FB92C55
:100958002B08003CAB002C08031C2C0F003CAC00FF
:100968002D08031C2D0F803CAD008030AA06AD0673
:100978002D082A02031D08002C082902031D08005F
:100988002B08280208008312A9003A30A80129027E
:100998000318D42C30302902031CD42CA801A80A2F
:1009A800280C0800AC01AD01281CE02C2A08AC0773
:1009B8000318AD0A2B08AD070310AA0DAB0D0310E1
:1009C800A90CA80C29082804031DD82C2D08A90057
:1009D8002C08A8000800A6270A128A1103103B0D4C
:1009E8003C0DC200C208031DFE2CB601B701B801B8
:1009F800B9010800A6270A128A1117300310BC0C87
:100A0800BB0CBA0CFF3E031D022D3A08BD00B717F8
:100A1800B8013608BE003708BF003808C0008E305D
:100A2800C101C202C21F252D4208803A8F3E031C15
:100A3800F92C0310C10CC00CBF0CBE0CC20F1D2D2D
:100A4800332D183042020318F92CC2080319332D2C
:100A58000310BE0DBF0DC00DC10DC203292D3D08E9
:100A68000319412DBE09BF09C009C109BE0A0319EE
:100A7800BF0A0319C00A0319C10A4108B90040088E
:100A8800B8003F08B7003E08B60008003808370429
:100A98003604350403197F2DBD01BD0AB81B5A2D34
:100AA8000310B50DB60DB70DB80D512D38083C0221
:100AB800031D682D37083B02031D682D36083A02CE
:100AC800031D682D35083902031C792D3508B90234
:100AD8003608031C360FBA023708031C370FBB024F
:100AE8003808031C380FBC020310B80CB70CB60C3E
:100AF800B50CBD0B5A2D3C08B8003B08B7003A08A6
:100B0800B6003908B5000800B001B101B201B3015F
:100B18002B082A04290428040319C72DB401B40A90
:100B2800AB1B9C2D0310A80DA90DAA0DAB0D932D81
:100B38000310B00DB10DB20DB30D2B082F02031D1C
:100B4800AF2D2A082E02031DAF2D29082D02031DE3
:100B5800AF2D28082C02031CC12D2808AC02290837
:100B6800031C290FAD022A08031C2A0FAE022B080A
:100B7800031C2B0FAF0230140310AB0CAA0CA90CEA
:100B8800A80CB40B9C2D3308AB003208AA0031081E
:100B9800A9003008A80008002808AE002908AF00FE
:100BA8002A08B00003102F0D300DB600B608031D3B
:100BB800E22DA801A901AA01AB0108002B08AE008B
:100BC8002C08AF002D08B00003102F0D300DB50014
:100BD800B5080319DD2D7F30A917AA01AC17AD019F
:100BE800B101B201B301B401B60298303507AE00C5
:100BF800B6021830B5000310B10DB20DB30DB40D27
:100C08002D082A02031D0E2E2C082902031D0E2E64
:100C18002B082802031C1C2E2B08A8022C08031CD6
:100C28002C0FA9022D08031C2D0AAA023114031047
:100C3800A80DA90DAA0DB50BFF2DB61F302E36082D
:100C4800803A973E031CDD2D0310B40CB30CB20C94
:100C5800B10CB60F282E3E2E183036020318DD2DA3
:100C6800B60803193E2E0310B10DB20DB30DB40D25
:100C7800B603342E3408AB003308AA003208A900A2
:100C88003108A80008002A082904280403190800C4
:100C98008030AA0608005208D8005308D900540822
:100CA800DA000310590D5A0DDD005508D800560812
:100CB800D9005708DA000310590D5A0DDC005D08F9
:100CC8000319722E5C085D025C0803187A2ED8009E
:100CD8005D08D80219305802031C792E5508D20035
:100CE8005608D3005708D40008005C080319080008
:100CF8005D085C020318882E5D08D8005C08D802DD
:100D080019305802031808000630DB00D41BDB1723
:100D1800D71B5B17D317D401D617D7015C085D0220
:100D28000318AF2E0310D50DD60DD70DDC035C08C4
:100D38005D060319AA2EDB035B0807390319AA2EDF
:100D4800962E0310D40CD30CD20CDD0A5D085C0679
:100D58000319CB2EA52E5D085C020318CB2E0310B9
:100D6800D20DD30DD40DDD035C085D060319C72E23
:100D7800DB035B0807390319C72EB32E0310D70C02
:100D8800D60CD50CDC0A5D085C06031DC22EDB1FE1
:100D9800D62EFF30D206D306D406D20A0319D30AB8
:100DA8000319D40A5B1FE12EFF30D506D606D706F5
:100DB800D50A0319D60A0319D70ADB015208D50741
:100DC800530803110318530A031DD60754080311C7
:100DD8000318540A031DD707D71FFD2EFF30D50669
:100DE800D606D706D50A0319D60A0319D70ADB018E
:100DF800DB0A5508A8005608A9005708AA005D088C
:100E0800AB005B08AC000A128A1569272808D200D3
:100E18002908D3002A08D40008008030E0066108B9
:100E2800D2006208D3006308D4005E08D5005F08CA
:100E3800D6006008D7004F265208DE005308DF00AE
:100E48005408E00008002D088312A80083162E0815
:100E58008312A90083162F088312AA000800AB008A
:100E6800831633088312AF00831632088312AE004C
:100E7800831631088312AD00831630088312AC0044
:100E880008004008A3000310A30D0310230D4F3ED4
:100E9800840008000A308312B500B601B701B80112
:100EA80083160800831228078316A300003003184E
:100EB8000130831229078316A4002308D03E0800B6
:100EC80052088316AD00831253088316AE008312AE
:100ED80054088316AF003B088312080039088316AC
:100EE800B300831238088316B200831237088316BA
:100EF800B1008312360808008312B60083163C0836
:100F08008312B70083163D088312B8000800C30097
:100F180083163C088312C40083163D088312C5005B
:100F280008002B08BC002A08BB002908BA002808BA
:100F3800B9000800A300A401A31BA4032408803A55
:100F4800A50008003608BA003708BB003808BC00FE
:100F580008008312A8000A30AA00AB010800831613
:100F6800031308008316C401C501C601C701C801DF
:100F7800C901CA01CB01CC01CD01CE01CF01D001FD
:0C0F8800D101D20183010A168A11E12E6A
:10106800283084008313000883120313AE00840A17
:101078000008AF00840A0008B000840A0008B10024
:101088000310300D310DBB00BB08031D5028A8010B
:10109800A901AA01AB0108002B30F3200A128A1516
:1010A8000310300D310DBA00BA0803194B28283047
:1010B80084008030840A840A80042830840A8400EA
:1010C8002B30840A840A840A800184008030840AD0
:1010D800840A80042B30840A84007F30840A840ABE
:1010E800840A8001B601B701B801B901BB02A0307A
:1010F8003A07AE00BB022030BA002B300310B60D01
:10110800B70DB80DB90DF3200A128A1528308400DE
:101118000008B200840A0008B300840A0008B4007A
:10112800840A0008B50031083502031DA5283008D7
:101138003402031DA5282F083302031DA5282E08F5
:101148003202031CC1282B30F3200A128A152830DA
:1011580084002E088002840A2F08031C2F0F8002A7
:10116800840A3008031C300F8002840A3108031CEB
:10117800310A8002033084023614283084000310B8
:10118800800D840A800D840A800D840A800DBA0BB4
:101198008128BB1FDC283B08803A9F3E031C4B2854
:1011A8000310B90CB80CB70CB60CBB0FD428EA283E
:1011B80020303B0203184B28BB080319EA28031008
:1011C800B60DB70DB80DB90DBB03E0283908AB0053
:1011D8003808AA003708A9003608A80008008400C3
:1011E8000008AE00840A0008AF00840A0008B000B6
:1011F800840A0008B10008008312E7006E30670215
:10120800031C8B290330B1000A30AD006430A800FC
:10121800670820220A128A1505220A128A155B27F6
:101228000A128A151C3E84000A168A1100200A1226
:101238008A15C3000A168A1100200A128A15C400EA
:101248000A168A1100200A128A15C5000330B10057
:101258006430AD00670805220A128A155B270A1256
:101268008A15373E84000A168A1100200A128A1548
:10127800C6000A168A1100200A128A15C7000A1623
:101288008A1100200A128A15C8000A128A15EC264B
:101298000A128A154B220A128A150330B1000A3045
:1012A800A800670820220A128A155B270A128A15E5
:1012B800013E84000A168A1100200A128A15C3000A
:1012C8000A168A1100200A128A15C4000A168A1101
:1012D80000200A128A1543220A128A15EC260A12DD
:1012E8008A154308E1004408E2004508E3003F305E
:1012F800C301C401C5006108C6006208C7006308CD
:10130800C8000A128A15EC260A128A153C2A0B30E4
:101318006702031CDF290330B1000A30A800670800
:1013280020220A128A155B270A128A15013E8400B8
:101338000A168A1100200A128A15C3000A168A1191
:1013480000200A128A15C4000A168A1100200A12FF
:101358008A15C5000330B1000A30AD0067080522C0
:101368000A128A155B270A128A151C3E84000A167F
:101378008A1100200A128A15C6000A168A1100204E
:101388000A128A15C7000A168A1100200A128A153D
:10139800C8000A128A15EC260A128A154B220A126C
:1013A8008A153F30C301C40143220A128A15EC266C
:1013B8000A128A153C2A3F30C301C401C500033014
:1013C800B10067080A128A155B270A128A15013EBE
:1013D80084000A168A1100200A128A15C6000A1605
:1013E8008A1100200A128A15C7000A168A110020DD
:1013F8000A128A15C8000A128A15EC260A128A15DA
:101408003C2AAE00B0012D0803191E2AAF01AF0A0D
:10141800AD1B112A0310AD0D0B2A0310B00D2D08BA
:101428002E02031C1B2A2D08AE0230140310AD0C2B
:10143800AF0B112A30080800AA000830AB00AC0135
:101448002A08A90007300310A90CFF3E0310031D4A
:10145800282A2C0D2904AC000310AA0D28082C02F8
:10146800031C382A2808AC02AB0B242A2C080800D5
:101478004308DE004408DF004508E0000800C50016
:101488006408C6006508C7006608C8000800430865
:10149800E4004408E5004508E6000800AE002D0811
:1014A8000319592A4030AF005A2AAF012E08AF0756
:1014B8002F088038A80000305A230A128A150524FC
:1014C8000A128A15003803190800632AB000902A06
:1014D8000030A801A80A5A230A128A1505240A12FC
:1014E8008A15003803190800722A0030AD01AD0AC8
:1014F800522A300830240A128A15031C08003008C2
:10150800A80001305A230A128A1505240A128A15DE
:10151800003803190800892A30080A3A0319792A79
:10152800063A03196C2A7D2A080083168811881048
:1015380008110812881208138813831203308811BF
:1015480088100811AF008A30AE005630AD00AD0BE0
:10155800AB2AAE0BAB2AAF0BAB2AB22A3E240A1237
:101568008A155A230A128A150230AF004530AE0098
:10157800A930AD00AD0BBE2AAE0BBE2AAF0BBE2AFA
:10158800C52A3E240A128A155A230A128A150230DD
:10159800AF004530AE00A930AD00AD0BD12AAE0B7F
:1015A800D12AAF0BD12AD82A323083120313A800CC
:1015B80000305A230A128A150330AF008A30AE0071
:1015C8005630AD00AD0BE62AAE0BE62AAF0BE62A85
:1015D800ED2A033083120313AF008A30AE00563071
:1015E800AD00AD0BF52AAE0BF52AAF0BF52AFC2A98
:1015F800033083120313AF008A30AE005630AD00BB
:10160800AD0B042BAE0B042BAF0B042B0B2B0524BB
:101618000A128A150038031D0B2B2830A800003049
:101628005A230A128A1505240A128A150038031D3E
:10163800172B0830A80000305A230A128A150524EF
:101648000A128A150038031D232B0C30A80000301D
:101658005A230A128A1505240A128A150038031D0E
:101668002F2B0030A801A80A5A230A128A1505242C
:101678000A128A150038031D3B2B0430A8000030DD
:101688005A230A128A1505240A128A150038031DDE
:10169800472B0030A801A80A5A230A128A150524E4
:1016A8000A128A15003803190800532BAB00831659
:1016B8000812881208138813831288102B08031D38
:1016C80088142130A900A90B672B8312031321303A
:1016D8000811A900A90B6E2B83120313881128087F
:1016E800AC002C0E0139A900290C031C7F2B831296
:1016F80003130816822B8312031308122C0EA90059
:10170800290C0139AA002A0C031C8E2B83120313FF
:101718008816912B8312031388122C0EA900A90C8A
:10172800290C0139AA002A0C031C9E2B83120313CF
:101738000817A12B8312031308132C0D2C0D013944
:10174800A900290C031CAC2B831203138817AF2B99
:101758008312031388132130A900A90BB12B83121C
:10176800031321308815A900A90BB82B8312031382
:1017780088112C080139A900290C031CC72B8312D6
:1017880003130816CA2B8312031308122C0C0139F1
:10179800A900290C031CD42B831203138816D72BFA
:1017A8008312031388122C0CA900290C0139AA00F2
:1017B8002A0C031CE32B831203130817E62B83124E
:1017C800031308132C0CA900A90C290C0139AA0031
:1017D8002A0C031CF32B831203138817F62B83128E
:1017E800031388132130A900A90BF82B83120313C4
:1017F80021308815A900A90BFF2B83120313881128
:10180800080083160313081688160817881783120A
:10181800213008158810A800A80B102C8312031378
:1018280021308815A800A80B172C00308312031349
:10183800881B0130A90021308811A800A80B222C90
:101848008312031321308815A800A80B292C8312B2
:101858000313881129080800A9007F30A80129026C
:1018680003183C2C20302902031C3C2CA801A80A90
:10187800280C0800303083120313A8000034B3008A
:10188800A8008E30A901AA01AB00AC01692728087D
:10189800B0002908B1002A08B20008008E30B40050
:1018A800FF30330503195F2C0310B30CB20CB10CD5
:1018B800B00CB40A542C3008A8003108A90032082A
:1018C800AA003408AB00AC0169272808B000290831
:1018D800B1002A08B20008005508D8005608D900F7
:1018E8005708DA000310590D5A0DDF00DF08031DF1
:1018F800812CD201D301D40108005208D800530822
:10190800D9005408DA000310590D5A0DE000E00818
:10191800031D922CD201D301D40108008930DC01C7
:10192800DD01DE016007D800DF025708E000540837
:10193800E0068030E0051830D617D701D317D40158
:10194800DB000310DC0DDD0DDE0D54085702031D0E
:10195800B32C53085602031DB32C52085502031C1E
:10196800C12C5208D5025308031C530FD602540841
:10197800031C540AD7025C140310D50DD60DD70DDD
:10198800DB0BA52C5C08A8005D08A9005E08AA006E
:101998005F08AB006008AC0069272808D200290856
:1019A800D3002A08D40008008312DC00DC1FA42D11
:1019B800DC09DC0A5C08803A123E031C482D0A3018
:1019C800CB270A128A15AF260A128A152908B100F0
:1019D8002808B0006A260A128A15E0271C3E8400EF
:1019E8000A168A1100200A128A15C3000A168A11DB
:1019F80000200A128A15C4000A168A1100200A1249
:101A08008A15E8270A128A15B01BB1036A260A123A
:101A18008A15AF27373E84000A168A1100200A1259
:101A28008A15C6000A168A1100200A128A15C700EC
:101A38000A168A1100200A128A15C800EC260A1212
:101A48008A15BE270A128A15AA1BAB03AF260A12EB
:101A58008A15A727013E84000A168A1100200A1257
:101A68008A15C3000A168A1100200A128A15C400B2
:101A78000A168A1100200A128A15F0270A128A15F6
:101A8800EC260A128A15B72F5C08803A753E031CAB
:101A98008D2D0A30A800A9015C08AA00AB01AA1B79
:101AA800AB03AF260A128A15A727013E84000A163F
:101AB8008A1100200A128A15C3000A168A1100200A
:101AC8000A128A15C4000A168A1100200A128A15F9
:101AD800F8270A128A15B01BB1036A260A128A155A
:101AE800AF271C3E84000A168A1100200A128A15A4
:101AF800C6000A168A1100200A128A15C7000A169B
:101B08008A1100200A128A15C800EC260A128A15C2
:101B1800B72F0330B1005C085B27013E84000A162A
:101B28008A1100200A128A15D2000A168A1100208A
:101B38000A128A15D3000A168A110020D400080058
:101B48005C08803A123E031C0E2E0A30CB270A127C
:101B58008A15AF260A128A152908B1002808B0008C
:101B68006A260A128A15E027433E84000A168A115B
:101B780000200A128A15C3000A168A1100200A12C8
:101B88008A15C4000A168A1100200A128A15E82745
:101B98000A128A15B01BB1036A260A128A15AF27E2
:101BA8005E3E84000A168A1100200A128A15C600B1
:101BB8000A168A1100200A128A15C7000A168A1105
:101BC80000200A128A15C800EC260A128A15BE27B8
:101BD8000A128A15AA1BAB03AF260A128A15A72771
:101BE800283E84000A168A1100200A128A15C300AA
:101BF8000A168A1100200A128A15C4000A168A11C8
:101C080000200A128A15F0270A128A15EC260A12F1
:101C18008A15B72F5C08803A753E031C532E0A308C
:101C2800A800A9015C08AA00AB01AA1BAB03AF2658
:101C38000A128A15A727283E84000A168A1100204E
:101C48000A128A15C3000A168A1100200A128A1578
:101C5800C4000A168A1100200A128A15F8270A12E7
:101C68008A15B01BB1036A260A128A15AF27433EAC
:101C780084000A168A1100200A128A15C6000A165C
:101C88008A1100200A128A15C7000A168A11002034
:101C98000A128A15C800EC260A128A15B72F0330D3
:101CA800B1005C085B27283E84000A168A110020D0
:101CB8000A128A15D2000A168A1100200A128A15F9
:101CC800D3000A168A110020D4000800B301AF1F00
:101CD800742EAE09AF09AE0A0319AF0AB301B30AED
:101CE800B11F7D2EB009B109B00A0319B10A01303C
:101CF800B306B401B5012F082E040319A22EB201B0
:101D0800B20AAF1B8B2E0310AE0DAF0D842E03103D
:101D1800B40DB50D2F083102031D942E2E08300284
:101D2800031C9E2E2E08B0022F08031CB103B1021B
:101D380034140310AF0CAE0CB20B8B2E33080319FE
:101D4800AA2EB409B509B40A0319B50A3508AF00B3
:101D58003408AE000800AD01AB1FB92EAA09AB09C3
:101D6800AA0A0319AB0AAD01AD0AA91FC02EA8091A
:101D7800A909A80A0319A90A290828040319DF2EA2
:101D8800AC01AC0AA91BCC2E0310A80DA90DC52EB9
:101D980029082B02031DD22E28082A02031CDB2E39
:101DA8002808AA022908031CAB03AB020310A90CDC
:101DB800A80CAC0BCC2E2D080319E72EAA09AB09E9
:101DC800AA0A0319AB0A2B08A9002A08A8000800C8
:101DD8004308C9004408CA004508CB0003104A0D4F
:101DE8004B0DCC00CC08031DFD2EC301C401C50159
:101DF80008004608C9004708CA004808CB00031075
:101E08004A0D4B0DD100D108031D0E2FC301C4018B
:101E1800C501080051087B3ECC074508D100480899
:101E2800D1068030D1050730C417C717C801CD01C6
:101E3800CE01CF01D000431C292F4608D6270A120D
:101E48008A150318480A031DCF070310C50CC40CD4
:101E5800C30C0310C60DC70DC80DD00B1F2F0930BA
:101E6800D000431C3F2F4608D6270A128A150318AC
:101E7800480A031DCF070310C50CC40CC30C03107C
:101E8800CF0CCE0CCD0CD00B352F4D08A8004E082A
:101E9800A9004F08AA004C08AB005108AC006927FC
:101EA8002808C3002908C4002A08C5000800B30090
:101EB800B20131083318B2070310B10D0310B30C87
:101EC800B308031D5D2F320808002B080319712F72
:101ED8002A0829042804031D7A2FA801A901AA01A8
:101EE8000800AB0A0310AA0CA90CA80CFE302A059E
:101EF8000319892F752FAB0AA80A0319A90A031910
:101F0800AA0A0310AA0CA90CA80CFF302A05031969
:101F1800932F7F2FAB030310A80DA90DAA0DA91F9E
:101F28008E2F2B1CA9130310AB0C2B08AF00AE018E
:101F3800AD012D08A8042E08A9042F08AA042C080E
:101F4800031DAA1708002808D5002908D600550837
:101F58005507550708002E08D7002F08D80057083E
:101F68005707570708004308D2004408D30045081C
:101F7800D40008004308D9004408DA004508DB000B
:101F88000A30A800A9015C08AA00AB010800AE004D
:101F9800AF015C08AA00AB01AA1BAB036430A80020
:101FA800A9010800CD07470803110318470A031DB4
:101FB800CE074808031108002E08D5002F08D600C0
:101FC8005508550755070800C5006430AE00AF0135
:101FD8005C08B000B1010800C5005908C6005A08DD
:101FE800C7005B08C8000800C5000A30AE00AF0192
:101FF8005C08B000B101080010308A000408840AA7
:1020080082070034003480343F34CD34CC343D343E
:10201800D73423343C34123483343A34B734D1348B
:102028003834C63427343734383486343534C034F9
:10203800D6343334CC342B3432347034893430349D
:10204800E734DB342E34E5343C341E344234A234D5
:102058000D34003480343F340034203441340034AB
:10206800C834423400347A34443440341C3446345E
:102078005034C334473424347434493497341834CE
:102088004B34BC34BE344C346B346E344E3403346D
:10209800153450347934AD346034F3344934713400
:1020A80001340034003400340A340034003400347D
:1020B8006434003400340034E83403340034003429
:1020C8001034273400340034A0348634013400340A
:1020D800403442340F340034803496349834003419
:1020E8000034E134F53405340034CA349A343B34CE
:1020F800723470346D343A342034253433342E3409
:102108003134663400347034703473343A342534DE
:0A21180033342E34303466340034C2
:102B84008B1A0B1DDA2D8030F801F9003F30FA0062
:102B940083164408FB004508FC004608FD00E225B6
:102BA40078088316C4007908C5007A08C6000B119A
:102BB400831227088A00260E8300FE0E7E0E09006B
:102BC40078088312A0007908A1007A08A2000310F3
:102BD400210D220DA5007B08A0007C08A1007D0822
:102BE400A2000310210D220DA40025080319062EAE
:102BF40024082502240803180E2EA0002508A0028C
:102C040019302002031C0D2E7B08F8007C08F90003
:102C14007D08FA0008002408031908002508240286
:102C240003181C2E2508A0002408A0021930200235
:102C3400031808000630A300FA1BA317FD1B231773
:102C4400F917FA01FC17FD01240825020318432E85
:102C54000310FB0DFC0DFD0DA40324082506031928
:102C64003E2EA3032308073903193E2E2A2E0310F0
:102C7400FA0CF90CF80CA50A2508240603195F2E92
:102C8400392E2508240203185F2E0310F80DF90DC0
:102C9400FA0DA5032408250603195B2EA3032308B4
:102CA400073903195B2E472E0310FD0CFC0CFB0C9B
:102CB400A40A25082406031D562EA31F6A2EFF30DE
:102CC400F806F906FA06F80A0319F90A0319FA0AC2
:102CD400231F752EFF30FB06FC06FD06FB0A0319B5
:102CE400FC0A0319FD0AA3017808FB0779080311FC
:102CF4000318790A031DFC077A08031103187A0ADA
:102D0400031DFD07FD1F912EFF30FB06FC06FD068B
:102D1400FB0A0319FC0A0319FD0AA301A30A7B0891
:102D2400F0007C08F1007D08F2002508F300230878
:102D3400F400A3267008F8007108F9007208FA007C
:102D4400080073080319AB2E720871047004031D84
:102D5400B42EF001F101F2010800F30A0310F20CA1
:102D6400F10CF00CFE3072050319C32EAF2EF30ADA
:102D7400F00A0319F10A0319F20A0310F20CF10C18
:102D8400F00CFF3072050319CD2EB92EF303031096
:102D9400F00DF10DF20DF11FC82E731CF113031089
:102DA400F30C7308F700F601F5017508F0047608D2
:102DB400F1047708F2047408031DF217080083165F
:102DC400051688010317890188010313811601126E
:102DD4008115831281018B160B118B170A128A1528
:102DE40099220A168A11831201080A128A154324A9
:102DF4000A168A113008D2003108D3003208D400F0
:102E04008030C301C4004330C500831644088312D4
:102E1400C600831645088312C7008316460883122A
:102E2400C8000A128A15EC260A168A114308D5002E
:102E34004408D6004508D7000A128A114F260A16FC
:102E44008A1152088316CD00831253088316CE00CC
:102E5400831254088316CF004D08D0004E08D100C9
:102E64004F08D2001A30C3005E30C2008630C10061
:102E7400C10B3A2FC20B3A2FC30B3A2F64008312B3
:102E8400031301080A128A1543240A168A1130080A
:102E9400D2003108D3003208D4008030C301C4000A
:102EA4004330C500831644088312C60083164508C0
:102EB4008312C700831646088312C8000A128A15B3
:102EC400EC260A168A114308D5004408D6004508A2
:102ED400D7000A128A114F260A168A11520883163D
:102EE400CD00831253088316CE0083125408831630
:102EF400CF0050088312DE00831651088312DF00CE
:102F0400831652088312E00083164D088312E100F1
:102F140083164E088312E20083164F088312E300DF
:102F24000A128A1111270A168A115E088316C7002D
:102F340083125F088316C800831260088316C900D1
:102F44008312B430D201D3004330D4007030C301B3
:102F5400C4004230C500831647088312C600831696
:102F640048088312C700831649088312C8000A124E
:102F74008A15EC260A168A114308D5004408D6009F
:102F84004508D7000A128A1570240A168A115208B5
:102F94008316CA00831253088316CB008312540885
:102FA4008316CC0083120030AD010A128A15522216
:102FB4000A168A1183164708A0004808A100490888
:102FC400A20082300A128A1111200A168A11831271
:102FD4000030AD01AD0A0A128A1552220A168A116E
:102FE40083164A08A0004B08A1004C08A2007730C1
:0C2FF4000A128A1111200A168A11F52E0B
:02400E00E2E3EB
:00000001FF
